:100000000C9459010C9481010C9481010C94810190
:100010000C9481010C9481010C9481010C94810158
:100020000C9481010C9481010C94EB0A0C94960CB5
:100030000C9481010C9481010C9481010C94810138
:100040000C9481010C9481010C9481010C94810128
:100050000C9481010C9481010C9481010C9489030E
:100060000C9481010C9481010C9481010C94810108
:100070000C9481010C9481010C9481010C948101F8
:100080000C9481010C9481010C9481010C948101E8
:100090000C9459040C9481010C9481010C948101FD
:1000A0000C9481010C9481010C94810177129312BC
:1000B000061306131E120613061306134312CB1261
:1000C0000613CE1206130613061306133512061373
:1000D00006130613061305125B1206130613061306
:1000E0000613061306130613061306136E128A125E
:1000F0000A12061318121B12061306131512061302
:1001000006130113C5120613061306132F12B0129D
:10011000B512061306130613581232125009550968
:100120005A0964096E09B809B809B8097809820939
:100130008C099609A309B809AB09DE0EE10ED00EB1
:10014000D40EDA0E020F020F020FE50EE90EED0ECD
:10015000F30EF70E020FFD0E000000002300260034
:1001600029002C002F0004040404040304050202E7
:100170000202040302020202060606060606040440
:1001800002020204040408020110408040102040D2
:10019000804080080204018040201002011080107D
:1001A000204040200000000200090F00000304016D
:1001B000000C000000000000000000000000000033
:1001C000000000070605040100080A0B0C0D0900D9
:1001D000000000240027002A002D0030000000004D
:1001E00000250028002B002E003100080B00020221
:1001F00002010009040000010202000005240010B1
:10020000010524010101042402060524060001075A
:1002100005810310004009040100020A00000007E4
:1002200005020240000007058302400000040309A4
:100230000412010002EF0201404123368000010157
:1002400002030141726475696E6F204C4C4300419A
:10025000726475696E6F204C656F6E6172646F00B9
:1002600005010904A10185060509190129201500C8
:1002700025017501952081020501A1000930093190
:100280000933093416008026FF7F7510950481021A
:10029000093209351580257F750895028102C00550
:1002A000010939093915012508950275048102C033
:1002B000B21711241FBECFEFDAE0DEBFCDBF11E0D1
:1002C000A0E0B1E0E0ECF1E302C005900D92A237AE
:1002D000B107D9F723E0A2E7B1E001C01D92AE3427
:1002E000B207E1F711E0C9E5D1E004C02197FE01B2
:1002F0000E94BF18C835D107C9F70E942A100C9474
:10030000DE180C9400003FB7F8948091A3029091FE
:10031000A402A091A502B091A60226B5A89B05C093
:100320002F3F19F00196A11DB11D3FBFBA2FA92F74
:10033000982F8827820F911DA11DB11DBC01CD01F1
:1003400042E0660F771F881F991F4A95D1F70895DD
:10035000DC01FB0112968C91129790E0248135818B
:1003600082179307D1F491818081813A31F481E041
:10037000913091F0933089F411C0813271F49B3047
:1003800021F482811F968C9305C09A3031F48281CA
:1003900050968C9381E00895089580E00895DC01E3
:1003A000FB0188E4808389E4818384E482831D9651
:1003B0009C911D979F709F5B93831D968D919C913F
:1003C0001E9724E0969587952A95E1F78F708F5BAD
:1003D000848385E00895FC0182818F5BFB0180832B
:1003E00081E0089585ED8093BC008091BC0084FD80
:1003F000FCCF10929D01089540917902262F30E0A4
:10040000240F311D21323105DCF420919D0124306F
:10041000C9F4FC0180E090E0861758F4309179022D
:100420002191DC01A95ABD4FA30FB11D2C93019658
:10043000F3CF80917902680F6093790280E008958C
:1004400081E0089582E008950895E0917601809119
:100450007501E81730F4F0E0E95CFD4F808190E031
:1004600008958FEF9FEF0895909176018091750127
:10047000981750F4E92FF0E0E95CFD4F208130E05F
:100480009F5F9093760102C02FEF3FEFC90108955F
:100490008091750190E020917601821B9109089569
:1004A000CF92DF92EF92FF920F931F93CF93DF9340
:1004B0007C01262F972F8A0180919E01882391F03D
:1004C000C62FD72F6E01C40ED51ECC15DD0571F0D9
:1004D0006991D701ED91FC910190F081E02DC70168
:1004E0000995F3CF642F822F0E94FC01C801DF9190
:1004F000CF911F910F91FF90EF90DF90CF900895D3
:10050000CF93DF931F92CDB7DEB7698320919E0111
:100510002223D1F02091C001203240F021E030E0D0
:10052000FC013383228380E090E015C080919F011D
:10053000E82FF0E0E056FE4F998190838F5F809323
:100540009F018093C00105C061E0CE0101960E9429
:10055000FC0181E090E00F90DF91CF910895EF9240
:10056000FF920F931F93CF93DF93FB0120812138DC
:1005700051F52381223239F5DC0112962C9130E0BD
:100580004481558142175307F1F4EC010B851C851A
:10059000E12CF12C0115110591F0F80144815581F0
:1005A0006281738180E80E945D0B8F3FFFEF9F07A0
:1005B00069F0E80EF91ED8010D911C91EBCF81E096
:1005C0008F87C70105C080E090E002C08FEF9FEFEA
:1005D000DF91CF911F910F91FF90EF900895CF93EE
:1005E000DF93CDB7DEB769970FB6F894DEBF0FBEC5
:1005F000CDBFFC01DB018C918F5F8C93BE016F5FDF
:100600007F4F89E1DB011D928A95E9F729E0298373
:1006100084E08A8391E09D8383E08E832A8721E2B0
:100620002B879C879D879F8722E2288B27E02B8B37
:1006300025E02C8B8E8B20E430E0388F2F8B998F28
:1006400082818B8395858685998B8A8B838180684F
:100650008D8B49E150E080E00E945D0B69960FB6FA
:10066000F894DEBF0FBECDBFDF91CF910895682F04
:1006700080E10E94030F60E08FE00E94030F61E0C1
:100680008FE00C94030F8F929F92AF92BF92CF9204
:10069000DF92EF92FF926B017C010E9483014B017C
:1006A0005C01C114D104E104F104F1F00E94830162
:1006B000DC01CB0188199909AA09BB09883E93403E
:1006C000A105B10570F321E0C21AD108E108F108D3
:1006D00088EE880E83E0981EA11CB11CC114D104C1
:1006E000E104F10419F7DDCFFF90EF90DF90CF9098
:1006F000BF90AF909F908F9008952FB7F89460911E
:100700009F027091A0028091A1029091A2022FBF3E
:1007100008951F920F920FB60F9211242F933F93BB
:100720008F939F93AF93BF9380919F029091A0026C
:10073000A091A102B091A20230919E0223E0230F6A
:100740002D3720F40196A11DB11D05C026E8230F09
:100750000296A11DB11D20939E0280939F0290934B
:10076000A002A093A102B093A2028091A302909153
:10077000A402A091A502B091A6020196A11DB11DEF
:100780008093A3029093A402A093A502B093A60223
:10079000BF91AF919F918F913F912F910F900FBE7D
:1007A0000F901F901895CF93DF93EC0181E08C831D
:1007B0008D839E01265F3F4F3F832E8319861886C7
:1007C0002BE331E0398328831C861B861E861D8619
:1007D0008F87888B81EC8A870E94500CFC012181D5
:1007E0008C8190E0820F911D089774F5A281B381EE
:1007F000109719F4D383C2830CC018968D919C91E5
:100800001997009711F0DC01F8CF1996DC93CE937D
:10081000189780818A8381818B8390818D81890F54
:10082000808380E09C81891778F4AE81BF81A80F16
:10083000B11D9C91A181B0E0AC5DBE4F9C939181B4
:100840009F5F91838F5FEECFDF91CF910895EF92FD
:10085000FF920F931F93CF93DF931F92CDB7DEB715
:100860008B017A0180911B03811107C08AE093E01C
:100870000E94D30381E080931B0386E0898341E0DB
:1008800050E0BE016F5F7F4F80910D030E94840B8B
:1008900097FD07C080910D03A701B80180640E94F5
:1008A000840B0F90DF91CF911F910F91FF90EF90EC
:1008B00008951F920F920FB60F9211242F933F931A
:1008C0004F935F936F937F938F939F93AF93BF9358
:1008D000EF93FF938091B900887F803609F49CC024
:1008E00068F5883209F45BC090F4803109F454C093
:1008F00038F4882309F4F6C0883009F44DC0F6C0F6
:10090000883109F44CC0803209F45DC0EFC08034F6
:1009100009F468C048F4803309F455C0883309F0FD
:10092000E5C080939B01D8C0803509F44FC088355D
:1009300009F45DC0883409F0D9C0D6C0883909F4FB
:10094000C7C0A8F4883709F467C038F4883609F4BA
:1009500063C0803709F460C0C9C0883809F4B8C0E2
:10096000803909F45FC0803809F0C0C05BC0803BAB
:1009700009F486C038F4803A09F466C0883A09F46C
:100980007FC0B4C0803C09F4A7C0883C09F4A4C06F
:10099000883B09F48AC0AAC08091780110C0909168
:1009A0009A0180919901981770F5E0919A0181E080
:1009B0008E0F80939A01F0E0E758FE4F808180937C
:1009C000BB0085EC86C080939B018EC0E0919A01AC
:1009D00081E08E0F80939A018091BB00F0E0E75890
:1009E000FE4F808390919A01809199016EC0E091B1
:1009F0009A0181E08E0F80939A018091BB00F0E014
:100A0000E758FE4F808380919C0181116DC081E089
:100A10008093770184EA61C083E080939D01109206
:100A20009D02CFCF80919D02803208F051C0E091AD
:100A30009D0281E08E0F80939D028091BB00F0E0CB
:100A4000E358FD4F8083BDCF85EC8093BC001092AE
:100A50009D0180919D02803230F4E0919D02F0E092
:100A6000E358FD4F108260919D0270E0E0917B029F
:100A7000F0917C028DE792E0099510929D0236C0BC
:100A800084E080939D0110927A0210927902E091A5
:100A90007702F0917802099580917902811105C061
:100AA00081E08093790210925702E0917A0281E00E
:100AB0008E0F80937A02F0E0E95AFD4F8081809397
:100AC000BB0090917A0280917902981708F479CF4F
:100AD00085E88093BC000AC085EC8093BC0010922E
:100AE0009D0104C010929B010E94F201FF91EF91C1
:100AF000BF91AF919F918F917F916F915F914F9136
:100B00003F912F910F900FBE0F901F9018950F934C
:100B10001F93CF93082F60E088E00E94030F81E0CD
:100B20000E943703C8E010E0C150C8010C2E02C07B
:100B3000959587950A94E2F781700E943703C11159
:100B4000F3CF61E088E0CF911F910F910C94030FD8
:100B50000F931F93CF93082F60E088E00E94030F4C
:100B600080E00E943703C8E010E0C150C8010C2E9D
:100B700002C0959587950A94E2F781700E94370329
:100B8000C111F3CF61E088E0CF911F910F910C94D8
:100B9000030F61E080E10E94330F61E08FE00E946B
:100BA000330F61E088E00E94330F61E086E00E942D
:100BB000330F60E086E00E94030F6AE070E080E09F
:100BC00090E00E94430361E086E00E94030F6AE028
:100BD00070E080E090E00E94430389EB0E94A8054A
:100BE0008FEF0E94870583E80E94870583E60E94B5
:100BF000870581EB0E94A80581E80E94870580E3B4
:100C00000E94870584E00E94870584E30E9487058F
:100C100082E00E94870583E10E94870581E10E94AE
:100C2000870580E00E9487058AE30E94870582E4A9
:100C30000E9487058FE30E9487058FE30E94870546
:100C400084EB0E94A80588E00E94870582E10E944B
:100C5000870582E70E94870582E10E94870586E07A
:100C60000E94870583E00E94870584E50E9487052E
:100C700083E00E9487058EE40E9487058FEB0E9427
:100C8000A80580E00E94870580E10E94870586EB29
:100C90000E94A80582E10E94870583EB0E94A805B7
:100CA00081E00E94870586E30E94A8058AE00E94F1
:100CB00087058CEC0E94A80582E00E94870580EEE3
:100CC0000E94A80580E00E94870580E80E948705B1
:100CD00080E00E9487058CE80E94870583E10E94DE
:100CE000870587EA0E94870585E00E9487058DE0D9
:100CF0000E94870580E50E94870584E10E948705A0
:100D000086E10E94870585E50E94870586E10E94AD
:100D1000870587E80E94870583E00E94870580E0B9
:100D20000E94870580E80E94870580E00E94870571
:100D30008CE80E94870583E10E94870587EA0E946C
:100D4000870585E00E9487058DE00E94870580E584
:100D50000E94870584E10E94870586E10E9487053D
:100D600085E50E94870586E10E94870587E80E9445
:100D7000870583E00E9487058AE30E94A80580E634
:100D80000E94870581E10E94A80566E970E080E085
:100D900090E00E94430389E20E94A80566E970E0A2
:100DA00080E090E00C944303CF92DF92EF92FF92A9
:100DB0001F93CF93DF93CDB7DEB760970FB6F8944C
:100DC000DEBF0FBECDBF80919D018111FCCF81E0C0
:100DD00080939D0180939C019FEF90939B011092C3
:100DE0009A018093990180937801809178018864B9
:100DF0008093780180917701813061F410927701BE
:100E0000809178018093BB008091BC0083FDF8CF76
:100E100085EC01C085EE8093BC0080919D018130FE
:100E2000E1F380919A01823018F480919A0101C017
:100E300082E0A9E7B1E027E332E0F9019E2F921B9F
:100E4000981718F49D919193F9CF109276018093A1
:100E5000750110E09091750180917601981729F144
:100E600084E393E00E943402809548E0149FB0012F
:100E7000112420E030E090E0F901E60FF71F41E097
:100E800050E04C0F5D1FE40FF51FAC01022E02C0B5
:100E9000559547950A94E2F7417040832F5F3F4F85
:100EA0002830310549F71F5FD5CF88898093C1016C
:100EB0008E858093C20189858093C3018F8580933D
:100EC000C4018A818093C50189818093C6018C8188
:100ED0008093C7018B818093C8018B858093C90162
:100EE0008A858093CA018D818093CB018E81809306
:100EF000CC018F818093CD0188858093CE018D8533
:100F00008093CF018C858093D00180E090E0C12C4C
:100F1000D12C7601C394FC01EF53FE4F2081222394
:100F200081F02091D101B701A601082E04C0440F21
:100F3000551F661F771F0A94D2F7422B4093D101A9
:100F400011C03091D101B701A601082E04C0440F91
:100F5000551F661F771F0A94D2F74095242F23232D
:100F60002093D101019688309105A9F680E090E0A8
:100F7000C12CD12C7601C394FC01E753FE4F308184
:100F8000332381F03091D201B701A601082E04C0AD
:100F9000440F551F661F771F0A94D2F7432B4093C7
:100FA000D20111C03091D201B701A601082E04C0B0
:100FB000440F551F661F771F0A94D2F74095242FC0
:100FC00023232093D201019688309105A9F68091C0
:100FD000D1019091D301892B8093D3018091D201CB
:100FE0009091D401892B8093D40160960FB6F89428
:100FF000DEBF0FBECDBFDF91CF911F91FF90EF906D
:10100000DF90CF9008950F931F93CF93DF9300E06D
:1010100011E0C0E0D0E0CE010E943218F8018193C7
:101020008F012196C432D105B1F7DF91CF911F9185
:101030000F9108950F931F93CF93DF9300E011E07A
:10104000C0E0D0E0F80161918F01CE010E943A1812
:101050002196C432D105B1F7DF91CF911F910F9145
:1010600008952F923F924F925F926F927F928F924C
:101070009F92AF92BF92CF92DF92EF92FF920F9327
:101080001F93CF93DF9300D01F92CDB7DEB788E1D7
:101090000E946F0FC39724F081E08093060102C085
:1010A000109206018BE10E946F0F8C014C018CE1C4
:1010B0000E946F0F9B838A831C01449728F021E0D4
:1010C00029830431110508F419820E947D032B0144
:1010D0003C01EA80FB8068010E947D03DC01CB01BA
:1010E00084199509A609B70980319742A105B10570
:1010F00008F04DC061E085E00E94030F3981332381
:10110000A9F18BE10E946F0F5C0161E070E080E06B
:1011100090E00E9443038CE10E946F0F48018C0C09
:101120009D1C97FE03C0EFEF8E1A9E0A959487943C
:101130002A813B812E0D3F1D37FF02C02F5F3F4F9D
:10114000190135942794A016B10608F485012A8167
:101150003B818217930710F49B838A83CA14DB04B4
:1011600008F46501E816F90608F47C0164E670E00D
:1011700080E090E00E94430360E085E00E94030F5E
:1011800064E670E080E090E00E944303A5CFC818B9
:10119000D908E218F3080819190910930D010093F2
:1011A0000C018A819B818219930990930F0180938E
:1011B0000E01D0921101C0921001F0921301E09241
:1011C0001201909209018092080130920B01209245
:1011D0000A0129812093220182E390E0909321016A
:1011E000809320010F900F900F90DF91CF911F916E
:1011F0000F91FF90EF90DF90CF90BF90AF909F90B6
:101200008F907F906F905F904F903F902F900C94B5
:101210001A08882329F081E08093030160E003C06D
:101220001092030161E08DE00E94330F0C941A08C4
:10123000CF92DF92EF92FF92853608F084E680939A
:101240000101A82FB0E025E13FEF4FEF5FEF0E94D3
:10125000671824E630E040E050E00E944818690139
:101260007A018BEEC80ED11CE11CF11C61E08BE011
:101270000E94330FC114D104E104F10411F460E0C1
:101280007FC0EFEAF1E0E4918E2F90E0FC0131970E
:10129000EF30F10508F06CC0E257FF4F0C94BF1817
:1012A00084B5806884BDC7BC6EC084B5806284BDCF
:1012B000C8BC69C080918000806880938000D09213
:1012C0008900C09288005FC0809180008062809316
:1012D0008000D0928B00C0928A0055C0809180001F
:1012E000886080938000D0928D00C0928C004BC0AB
:1012F00080919000806880939000D0929900C09275
:10130000980041C080919000806280939000D092BC
:101310009B00C0929A0037C08091900088608093B3
:101320009000D0929D00C0929C002DC08091C00082
:1013300080688093C0008091C0008F7B8093C00044
:10134000C092CF0020C08091C00080628093C00016
:10135000C092D00018C08091C20088608093C20003
:101360008091C2008B7F8093C200C092D2000BC0DC
:1013700080E8C816D104E104F1040CF480CF61E0E8
:101380008BE00E94030FFF90EF90DF90CF900C94C2
:101390001A084091B5025091B6022091B3023091E3
:1013A000B40242175307B4F49091E8009570E1F34A
:1013B0009091E80092FD19C08093F1008091B502F0
:1013C0009091B60201968F739927892B19F48EEFAD
:1013D0008093E8008091B5029091B60201969093B7
:1013E000B6028093B50281E0089580E00895CF921F
:1013F000DF92EF92FF920F931F93CF93DF931F9291
:10140000CDB7DEB7182F062FE42E862F880F8E5FFC
:1014100099830E94C90983E00E94C909F12EC12E57
:101420009981D92E8C2D8F19801798F4F601E7FE3B
:1014300002C0849101C080810E94C909182F80E0F8
:101440000E94C9098123FFEFCF1ADF0A8111EACF79
:1014500001C081E00F90DF91CF911F910F91FF901C
:10146000EF90DF90CF900895615030F02091F1001F
:10147000FC0120830196F8CF289884E68093B80277
:101480000895CF92DF92EF92FF920F931F93CF9325
:10149000DF936C017A018B01C0E0D0E0CE15DF054F
:1014A00089F0D8016D918D01D601ED91FC910190EB
:1014B000F081E02DC6010995892B11F47E0102C04F
:1014C0002196ECCFC701DF91CF911F910F91FF9033
:1014D000EF90DF90CF900895CF93DF931F92CDB719
:1014E000DEB76983DC01ED91FC910280F381E02D90
:1014F00041E050E0BE016F5F7F4F09950F90DF9193
:10150000CF91089583E08093E9008091F2008823D1
:1015100019F08AE38093E8000895FC01848595859D
:1015200097FD0BC09FB7F89482E08093E90080910B
:10153000F2009FBF90E0019608959FB7F89482E073
:101540008093E9008091F2009FBF90E008950E948F
:10155000D9180F931F93CF93DF931F92CDB7DEB7A8
:101560008C01FC018485958597FF0EC0CE01019604
:101570000E94B40F019719F4298130E002C02FEFC7
:101580003FEFF80135872487F801848595850F9012
:10159000DF91CF911F910F910895CF93DF931F9209
:1015A000CDB7DEB7FC018485958597FD05C02FEF8B
:1015B0003FEF358724870BC0CE0101960E94B40F00
:1015C000019719F4898190E002C08FEF9FEF0F908F
:1015D000DF91CF9108951F920F920FB60F921124B1
:1015E0008F939F938091E1009091E100937F90937E
:1015F000E10083FF0FC01092E90091E09093EB00AF
:101600001092EC0092E39093ED001092B90298E0F2
:101610009093F00082FF20C093E09093E9009091B6
:10162000F200992319F09AE39093E8009091B702A1
:10163000992339F09091B70291509093B702992372
:1016400089F19091B802992339F09091B8029150A4
:101650009093B802992341F184FF10C08091E20079
:101660008E7E81608093E2008091E1008F7E809386
:10167000E100809173018E7E806111C080FF16C0F1
:101680008091E2008E7E80618093E2008091E10093
:101690008E7E8093E100809173018E7E81608093C5
:1016A000730104C05D9ACDCF289AD6CF9F918F91B8
:1016B0000F900FBE0F901F901895DF92EF92FF9240
:1016C0000F931F93CF93DF93D82E8A017B01E40EF3
:1016D000F51EEB01CE15DF0571F0D7FE03C0FE014C
:1016E000849101C088810E94C90921968111F2CF9D
:1016F0008FEF9FEF01C0C801DF91CF911F910F9134
:10170000FF90EF90DF9008956F927F929F92AF923B
:10171000BF92CF92DF92EF92FF920F931F93CF93DE
:10172000DF9300D01F92CDB7DEB7382F8B018091A9
:10173000B902811103C08FEF9FEF8BC080917301BD
:1017400080FF05C08091E00082608093E0003A0154
:10175000F12C8AEFE82E832F8770C82E90E4B92EE3
:10176000832F8072A82E832F8074982E2AE3D22E86
:101770006114710409F466C08FB7F894C092E9004F
:101780009091E80095FF05C09091F2002B2D291B48
:1017900001C020E08FBF211110C0EA94EE2059F261
:1017A00061E070E080E090E039834A835B830E94CF
:1017B000430339814A815B81DBCF822F90E0681639
:1017C00079060CF4262D6FB7F894C092E900809149
:1017D000E80085FF35C0822F90E0681A790AAA20B8
:1017E00029F02150A8F01092F100FBCFF80137FF4B
:1017F00007C0215058F074917093F1003196F9CFE1
:10180000215020F071917093F100FACF080F191F49
:10181000FF2019F0D092E8000BC08091E80085FD10
:1018200009C0D092E800FF24F3946114710441F0E0
:10183000F12C06C06114710419F49110D092E800E3
:101840006FBF96CFF11098CF5D9884E68093B70272
:10185000CA010F900F900F90DF91CF911F910F91C0
:10186000FF90EF90DF90CF90BF90AF909F907F90D0
:101870006F900895CF93DF93EC0180913601882318
:1018800031F083E00E94840B1816190634F081E0D1
:1018900090E09B838A8380E090E0DF91CF91089570
:1018A0008091AB0281110DC082E08093A70284E099
:1018B0008093A8021092AA021092A90281E080935C
:1018C000AB0287EA92E008950F931F93CF93DF93C3
:1018D0001F92CDB7DEB782E0898342E450E06BEE21
:1018E00071E080E80E945D0B0E94500CDC011296B2
:1018F0000D911C9113970115110569F0D801ED9117
:10190000FC910280F381E02DBE016F5F7F4FC80123
:10191000099597FF07C089810F90DF91CF911F91A3
:101920000F910895F80100851185E5CF1F920F9260
:101930000FB60F921124CF92DF92EF92FF920F9386
:101940001F932F933F934F935F936F937F938F9347
:101950009F93AF93BF93EF93FF93CF93DF93CDB755
:10196000DEB76C97DEBFCDBF1092E9008091E80032
:1019700083FFEDC168E0CE0145960E94340A82EFF4
:101980008093E8008D8987FF05C09091E80090FF63
:10199000FCCF03C09EEF9093E800982F907609F05B
:1019A000C6C09E892F89188D91110CC0803829F4EA
:1019B000809174018093F10002C01092F1001092A6
:1019C000F10048C1422F50E0512B913051F4811168
:1019D00041C14130510509F03DC1809174018D7FB5
:1019E0000BC0933061F4811135C14130510509F0CC
:1019F00031C1809174018260809374012BC1953054
:101A000041F48091E80080FFFCCF20682093E30040
:101A100021C1963009F05FC0EB8CFC8C1092E9007C
:101A20001092B6021092B502123091F51092B402E3
:101A30001092B3020E94640C99E0BE016F5F7F4F69
:101A4000DB01E92F1D92EA95E9F799831A8391E06A
:101A50009E8390EA98879AEF99872091B5023091FA
:101A6000B602275F3F4F3C832B838D831092E900A2
:101A70001092B6021092B502F092B402E092B30254
:101A800049E050E080E00E945D0B0E94640CE2C0DF
:101A9000F092B402E092B3020E94500CDC01129664
:101AA000ED90FC901397E114F10409F4C0C0D70144
:101AB000ED91FC910480F581E02DBE016B5E7F4FBE
:101AC000C7010995009719F00CF0C4C0C7C0F70111
:101AD000E084F184E8CF973009F4C0C0983021F455
:101AE00081E08093F100B6C0993009F0B3C08370F3
:101AF00009F0B4C0E5E2F1E081E021E036E3908155
:101B0000992361F08093E9002093EB0091919093E9
:101B1000EC003093ED008F5F873089F78EE780937C
:101B2000EA001092EA008F898093B90293C08B8DEE
:101B30009C8D1092E9001092B6021092B50290931B
:101B4000B4028093B302898D811156C08E899D891C
:101B5000913A59F4813209F081C047E050E06FE2D8
:101B600071E080E00E945D0B75C0913209F076C093
:101B7000833289F4888D90E0982F88272F89822BD3
:101B8000A0E0B0E080932B0190932C01A0932D0155
:101B9000B0932E015FC0803269F48091E80082FF2B
:101BA000FCCF67E08FE291E00E94340A8BEF8093D4
:101BB000E80006C0823209F04DC08F89809336015B
:101BC00080917201882319F0EEEFFAE002C0E0E0A4
:101BD000F8E080912F0190913001A0913101B091F6
:101BE0003201803B9440A105B10509F07BC0809192
:101BF000360180FF93C076C00E94500CDC01129623
:101C00000D911C9113970115110541F1D801ED912A
:101C1000FC910190F081E02DBE016B5E7F4FC80109
:101C20000995811117C0F80100851185ECCF11309D
:101C300009F44EC0133091F48F89882309F445C00C
:101C4000823081F440E860E18FE492E00E94F7097D
:101C5000882321F08EEF8093E80079C081E28093A1
:101C6000EB0075C0813029F440E86BE083E492E03A
:101C7000EDCF833099F70E94500CDC011296ED9065
:101C8000FC9013978E010F5F1F4F6801E114F10460
:101C900079F0D701ED91FC910680F781E02DB80134
:101CA000C7010995080F111DF701E084F184EECFFB
:101CB000D8011C92F60101900020E9F73197BF018D
:101CC0006C197D0940E0C601C1CF6DE272E002C02F
:101CD00061E372E06115710509F2FB01449150E086
:101CE00080E840CF0FB6F894A89580916000886195
:101CF00080936000109260000FBEA895EE3F2AE02E
:101D0000F20739F08091FE0A9091FF0A9183808357
:101D1000A1CF1092FF0A1092FE0A9CCFEE3F8AE0FC
:101D2000F80731F0808191819093FF0A8093FE0A39
:101D300087E797E7918380839BE088E10FB6F8946B
:101D4000A895809360000FBE9093600083CF6C963F
:101D50000FB6F894DEBF0FBECDBFDF91CF91FF91DC
:101D6000EF91BF91AF919F918F917F916F915F9113
:101D70004F913F912F911F910F91FF90EF90DF9026
:101D8000CF900F900FBE0F901F90189590E0FC0120
:101D90003197EF30F105B0F5E356FF4F0C94BF18C3
:101DA000809180008F7703C0809180008F7D809329
:101DB0008000089580918000877FF9CF84B58F7768
:101DC00002C084B58F7D84BD0895809190008F7787
:101DD00007C0809190008F7D03C080919000877F25
:101DE0008093900008958091C0008F7703C0809108
:101DF000C0008F7D8093C00008958091C200877FCE
:101E00008093C20008951F93CF93DF93282F30E073
:101E1000F901EC55FE4F8491F901EB57FE4FD49137
:101E2000F901EA59FE4FC491CC23C9F0162F811154
:101E30000E94C60EEC2FF0E0EE0FFF1FE352FE4FA4
:101E4000A591B4918FB7F894111105C09C91ED2F15
:101E5000E095E92302C0EC91ED2BEC938FBFDF916D
:101E6000CF911F910895CF93DF9390E0FC01EB5742
:101E7000FE4F2491FC01EA59FE4F8491882361F1C1
:101E800090E0880F991FFC01E153FE4FC591D4915A
:101E9000FC01E352FE4FA591B491611109C09FB7B7
:101EA000F8948881209582238883EC912E230BC09F
:101EB000623061F49FB7F8943881822F8095832334
:101EC0008883EC912E2B2C939FBF06C08FB7F8947C
:101ED000E8812E2B28838FBFDF91CF910895823127
:101EE00008F08251E82FF0E0ED53FE4FE49180912D
:101EF0007B00E3FB222720F930E095E0220F331F1F
:101F00009A95E1F78F7D282B20937B00E770E064A2
:101F1000E0937C0080917A00806480937A008091C5
:101F20007A0086FDFCCF809178002091790090E0C6
:101F3000922B0895BC01009791F0FC0101900020C4
:101F4000E9F73197AF01481B590BE091BA02F091C4
:101F5000BB020280F381E02D8AEB92E0099480E0DD
:101F600090E008950C949A0FFC018091B9028111C0
:101F700003C08FEF9FEF08959FB7F89482E080939E
:101F8000E9002091F20030E01216130614F421E06B
:101F900030E02115310559F0289884E68093B80285
:101FA0008091F10080838091F200882319F09FBF17
:101FB000C90108958BE68093E800F9CF8F929F9234
:101FC000AF92BF920F931F93CF93DF93CDB7DEB73E
:101FD000A1970FB6F894DEBF0FBECDBF19A2423055
:101FE00008F44AE08E010F5D1F4F842E912CA12C26
:101FF000B12CA50194010E947A18E62FB901CA01FB
:1020000001501109EA3014F4E05D01C0E95CD80127
:10201000EC93232B242B252B61F7C8010E949A0FE8
:10202000A1960FB6F894DEBF0FBECDBFDF91CF9162
:102030001F910F91BF90AF909F908F900895E09166
:10204000BA02F091BB020190F081E02D6FE38AEBC0
:1020500092E00994789484B5826084BD84B58160EF
:1020600084BD85B5826085BD85B5816085BD809163
:102070006E00816080936E001092810080918100DB
:1020800082608093810080918100816080938100D3
:1020900080918000816080938000809191008260B7
:1020A0008093910080919100816080939100809154
:1020B00090008160809390008091C1008460809343
:1020C000C1008091C10082608093C1008091C100F5
:1020D00081608093C1008091C30081608093C300C0
:1020E0008091C00082608093C0008091C2008160B6
:1020F0008093C20080917A00846080937A008091FE
:102100007A00826080937A0080917A008160809367
:102110007A0080917A00806880937A001092B902E8
:1021200010927401109273018091D70081608093A6
:10213000D70080EA8093D80089B5806189BD89B5D0
:10214000826089BD09B400FEFDCF61E070E080E0EF
:1021500090E00E9443038091D8008F7C806180933F
:10216000D8008091E000807F8093E0008091E100C2
:102170008E7E8093E1008DE08093E200559A209A54
:10218000EEEFFFE7859194918B3F9C4D19F481E030
:102190008093720168EE73E080E090E00E94430358
:1021A0008FEF9FEF9093C7028093C60261E085E0B6
:1021B0000E94330FC4E061E085E00E94030F62E3F8
:1021C00070E080E090E00E94430360E085E00E94C0
:1021D000030F62E370E080E090E00E944303C1508F
:1021E00051F761E08BE00E94330F0E94C90560E067
:1021F00087E00E94330F60E08BE10E94330F60E0C4
:102200008CE10E94330F60E084E10E94330F60E0B4
:1022100088E10E94330F80E090E00E943218833002
:1022200011F00E941A080E940308109204011092F3
:102230000701809101010E94180980910201882301
:1022400021F081E08093020102C0109202010E94FD
:102250001A0881E090910301911101C080E00E9471
:10226000090980910401882321F081E08093040111
:1022700002C0109204010E941A0810927601109276
:10228000750110929F011092C00110929D01C1E052
:10229000C0939C011092770161E082E00E94030FDD
:1022A00061E083E00E94030F8091B9008E7F8093EC
:1022B000B9008091B9008D7F8093B90088E4809344
:1022C000B80085E48093BC00C0939E0184E28093B3
:1022D000D50110929F011092C00160E084E393E069
:1022E0000E9480028091C001813208F045C0909127
:1022F0009D019111FCCF92E090939D0191E090930C
:102300009C019FEF90939B0110929A0180939901F9
:10231000A0EAB1E029E731E0F9019E2F921B98175E
:1023200018F49D919193F9CF1092780180917801E2
:1023300088648093780180917701813061F41092F4
:102340007701809178018093BB008091BC0083FD70
:10235000F8CF85EC01C085EE8093BC0080919D0193
:102360008230E1F380919B018F3F31F080919B019E
:10237000803211F080919B0110929F011092C00158
:1023800010929E010E94D4068091C90181110E9481
:1023900031088FE0E5E2F3E0DF011D928A95E9F76D
:1023A000E0912303F09124030190F081E02D4FE0B0
:1023B00050E065E273E083E293E009953DE6232E69
:1023C00031E0332E44ED442E43E0542E612C712C29
:1023D00011E08AEB92E00E948D0A181619060CF0A3
:1023E00017C18AEB92E00E94CD0A082E000C990BCF
:1023F000AA0BBB0BFC01E154F109E833F10508F02D
:1024000005C1EA5AFF4F0C94BF18609118027091F1
:10241000190267C0C0911802D09119026C2F8AEB83
:1024200092E00E946C0A6D2FB1C06091040158C007
:1024300060910501ABC06091050152C08AEB92E04A
:102440000E948D0A019709F0E1C08AEB92E00E9498
:10245000CD0A853608F084E68093050126C0609198
:10246000010194C0609101013BC08AEB92E00E949F
:102470008D0A019709F0CAC08AEB92E00E94CD0A4A
:102480000E941809C0C08AEB92E00E948D0A019751
:1024900009F0BCC08AEB92E00E94CD0A813319F4A6
:1024A0001093040102C0109204010E941A08ABC0EC
:1024B0006091020115C08AEB92E00E948D0A01979B
:1024C00009F0A4C08AEB92E00E94CD0A813319F48E
:1024D00010930201EACF10920201E7CF609103014D
:1024E00070E080E090E04AE00E94DE0F91C08AEB4D
:1024F00092E00E948D0A019709F088C08AEB92E071
:102500000E94CD0A813311F481E001C080E00E9475
:10251000090979C06091D1018AEB92E00E946C0AAE
:102520006091D20133C06091D3018AEB92E00E94A6
:102530006C0A6091D4018AEB92E00E946C0A1092BE
:10254000D3011092D4010E947D0360932B027093FB
:102550002C0280932D0290932E0210932F0258C0CC
:102560001092D3011092D4014EC060912602809146
:102570000201811162608091030181116460809188
:102580000401882319F0686001C062E18AEB92E0DF
:102590000E946C0A3DC00E94310835C068EC70E0B2
:1025A00080E090E00E9443031092170210921602FE
:1025B0008AEB92E00E948D0A18161906A4F48AEBA1
:1025C00092E00E94CD0A813219F410931602F0CFE6
:1025D00090911702E92FF0E0EA52FE4F80839F5F4F
:1025E00090931702E5CF80911602882339F0F0907E
:1025F0001702F0FE6EC48FE691E068C48CE691E0AD
:1026000065C40E94C90589E691E060C40E941F105C
:102610000E947D03C0903002D0903102E0903202DF
:10262000F0903302DC01CB018C199D09AE09BF0982
:102630004197A105B10508F45CC361E085E00E9403
:10264000030F0E94D40680912F0281119EC28091B7
:102650003303807F8093330390910701992309F41A
:102660005DC02091C1018091250390912603A09126
:102670002703B0912803222311F0906401C09F7BAF
:102680008093250390932603A0932703B0932803F8
:102690002091C2018091250390912603A0912703E8
:1026A000B0912803222311F0906801C09F77809396
:1026B000250390932603A0932703B093280320912A
:1026C000C3018091250390912603A0912703B09127
:1026D0002803222311F0A16001C0AE7F809325035F
:1026E00090932603A0932703B09328032091C4015D
:1026F0008091250390912603A0912703B091280390
:10270000222311F0A26001C0AD7F80932503909336
:102710002603A0932703B09328033DC09091C201E4
:102720009923A1F08560809333039091C30199238D
:1027300021F0807F8660809333038091C4018823D9
:1027400051F180913303807F846023C09091C10157
:102750009923A1F08160809333039091C301992361
:1027600021F0807F8860809333038091C4018823A7
:1027700091F080913303807F82600BC09091C30100
:10278000992311F0876005C09091C401992319F035
:102790008360809333032091C5018091250390913C
:1027A0002603A0912703B0912803222311F0816012
:1027B00001C08E7F8093250390932603A093270367
:1027C000B09328032091C6018091250390912603A0
:1027D000A0912703B0912803222311F0826001C049
:1027E0008D7F8093250390932603A0932703B093B6
:1027F00028032091C7018091250390912603A09181
:102800002703B0912803222311F0846001C08B7F3D
:102810008093250390932603A0932703B093280366
:102820002091C8018091250390912603A091270350
:10283000B0912803222311F0886001C0877F809324
:10284000250390932603A0932703B0932803209198
:10285000C9018091250390912603A0912703B0918F
:102860002803222311F0806101C08F7E809325030D
:1028700090932603A0932703B09328032091CA01C5
:102880008091250390912603A0912703B0912803FE
:10289000222311F0806201C08F7D809325039093E5
:1028A0002603A0932703B09328032091CB018091A6
:1028B000250390912603A0912703B091280322239A
:1028C00011F0806401C08F7B8093250390932603D1
:1028D000A0932703B09328032091CC018091250376
:1028E00090912603A0912703B0912803222311F091
:1028F000806801C08F778093250390932603A0936F
:102900002703B09328032091CD0180912503909156
:102910002603A0912703B0912803222311F0916090
:1029200001C09E7F8093250390932603A0932703E5
:10293000B09328032091CE01809125039091260326
:10294000A0912703B0912803222311F0926001C0C7
:102950009D7F8093250390932603A0932703B09334
:1029600028032091CF018091250390912603A09107
:102970002703B0912803222311F0946001C09B7FAC
:102980008093250390932603A0932703B0932803F5
:102990002091D0018091250390912603A0912703D7
:1029A000B0912803222311F0986001C0977F809393
:1029B000250390932603A0932703B09328038091C7
:1029C0002201882309F4C6C08BE10E946F0FEC013D
:1029D0008CE10E946F0F2091080130910901FE01E6
:1029E000E21BF30B9F0140910A0150910B01EC0196
:1029F000C41BD50BC0902001D0902101CE16DF065C
:102A00001CF42C193D090CC0882799278C199D09A5
:102A1000E817F9071CF42C0D3D1D02C020E030E042
:102A200080910C0190910D01C2964C01990FAA085A
:102A3000BB08C901330FAA0BBB0B9C01AD012819C0
:102A400039094A095B09ACE4BFEF0E94671820917D
:102A500010013091110122533109032E000C440B57
:102A6000550B281939094A095B090E94481857FD76
:102A70000EC02D34FFEF3F07410551056CF4DA011C
:102A8000C901865A9F47A109B1097C0109C02AE5FD
:102A9000E22E20E8F22E04C096EAE92E9FE7F92EF6
:102AA000CC16DD061CF4CC19DD090CC0882799274B
:102AB0008C199D09C817D9071CF4CC0DDD1D02C067
:102AC000C0E0D0E080910E0190910F01C2965C01B0
:102AD000990FCC08DD08CE01DD0FAA0BBB0B9C01C2
:102AE000AD012A193B094C095D09A4EBB0E00E9435
:102AF0007518209112013091130122533109032ED0
:102B0000000C440B550B2A193B094C095D090E9426
:102B10004818243B31058FEF480758076CF0121610
:102B20001306140615065CF0DA01C9018A559048AF
:102B3000AF4FBF4F9C0105C02AE530E802C026EA2E
:102B40003FE7F0922A03E092290330932C0320936D
:102B50002B0308C010922A031092290310922C0311
:102B600010922B0380912602811126C0E09123034D
:102B7000F09124030190F081E02D4FE050E065E2F8
:102B800073E083E293E0099517C00E947D03C09033
:102B90002B02D0902C02E0902D02F0902E02DC014E
:102BA000CB018C199D09AE09BF09893E9340A1054F
:102BB000B10510F010922F0280912602882309F4AB
:102BC0008AC08091C1018823A1F0809105018536DA
:102BD00040F4803630F4853010F48F5F03C08B5F93
:102BE00001C084E6853608F084E6809305010E94E2
:102BF0001A088091C201882399F0809105018536D9
:102C000018F4863020F001C084E6855002C081119E
:102C10008150853608F084E6809305010E941A08E9
:102C20008091C401882361F080910101282F30E058
:102C30002B35310514F4865F01C084E60E94180923
:102C40008091C301882349F0809101018A3010F0FE
:102C50008A5001C080E00E9418098091C501882334
:102C600021F0109302010E941A088091C601882366
:102C700021F0109202010E941A088091C801882355
:102C800019F081E00E9409098091C701882319F099
:102C900080E00E9409098091C901882321F01093E6
:102CA00004010E941A088091CA01882321F0109221
:102CB00004010E941A088091CD018111109307012F
:102CC0008091CB0181111092070168EC70E080E0E7
:102CD00090E00E94430360E085E00E94030F0E94A1
:102CE0007D0360933002709331028093320290939F
:102CF00033020E947D03C0902702D0902802E0900A
:102D00002902F0902A02DC01CB018C199D09AE0941
:102D1000BF09893C9105A105B10568F1EBEAF1E035
:102D20008491ECE8F1E0C491F101D491DD2379F0D4
:102D300081110E94C60EED2FF0E0EE0FFF1FE85A42
:102D4000FE4FA591B4918C91C82309F0EDC010936A
:102D5000260280912602882321F01092D30110923E
:102D6000D4010E947D036093270270932802809310
:102D7000290290932A020E947D03C0902202D090E3
:102D80002302E0902402F0902502DC01CB018C1993
:102D90009D09AE09BF09853F9140A105B10508F421
:102DA0008DC084E10E946F0FEC0184E10E946F0FDF
:102DB000C80FD91F84E10E946F0F8C0F9D1F63E025
:102DC00070E00E94AB187093190260931802809112
:102DD0000601882331F188E10E946F0F449754F077
:102DE00088E10E946F0F893E93403CF488E10E9485
:102DF0006F0F05C084E190E002C088EE93E0A0E090
:102E0000B0E09C01AD012451310941095109A4E60A
:102E1000B0E00E946718A30192010E944818209315
:102E200005019091D1012091200280911B0229136C
:102E30007EC09091D20120912102291378C0811186
:102E400014C040911C0250911D0260911E027091AD
:102E50001F024F5F5F4F6F4F7F4F40931C02509395
:102E60001D0260931E0270931F0240911C0250913C
:102E70001D0260911E0270911F02413B544061058A
:102E8000710508F465C081110FC010931B02809179
:102E9000010180931A0280E00E94180980911A02B1
:102EA000809301010E941A080E947D036093220210
:102EB000709323028093240290932502A0E0B0E057
:102EC000AB2B09F486CA0E94000082CA0E94B20F8E
:102ED0009FCB60E088E00E94030FC6EDD1E000E0E8
:102EE0000F15B1F000FF11C08881FE01319790816C
:102EF0009A339CF490539295907F8A3384F4805354
:102F0000890F013071F40E94A8050F5F2196E8CF68
:102F100061E088E00E94030F76CB9753ECCF875394
:102F2000EFCF0E948705F1CF1092260212CF909129
:102F3000D101909320029091D2019093210210929E
:102F40001C0210921D0210921E0210921F028DCFC1
:102F5000882309F4A9CF10921B0280911A020E94C3
:102F60001809A2CF1092BD021092BC0288EE93E025
:102F7000A0E0B0E08093BE029093BF02A093C00295
:102F8000B093C10287E491E09093BB028093BA02B0
:102F90008FEF9FEF9093C7028093C60287E591E081
:102FA000909324038093230380914603811113C0DF
:102FB000109241031092400380E692E09093430305
:102FC0008093420380E590E090934503809344030F
:102FD00081E08093460380911B03811107C08AE042
:102FE00093E00E94D30381E080931B03E0911503DB
:102FF000F0911603309739F480E493E09093160330
:10300000809315030AC080819181009711F0FC0123
:10301000FACF80E493E09183808320914403309140
:1030200045038091170390911803820F931F90938B
:10303000180380931703109237031092360388EE1B
:1030400093E0A0E0B0E08093380390933903A0931D
:103050003A03B0933B038DE591E090933503809361
:1030600034030895F999FECF92BD81BDF89A99274E
:1030700080B50895262FF999FECF1FBA92BD81BD64
:1030800020BD0FB6F894FA9AF99A0FBE01960895EA
:10309000052E97FB1EF400940E945F1857FD07D081
:1030A0000E947A1807FC03D04EF40C945F185095D8
:1030B0004095309521953F4F4F4F5F4F0895909524
:1030C0008095709561957F4F8F4F9F4F08950E9417
:1030D0009C18A59F900DB49F900DA49F800D911DED
:1030E00011240895B7FF0C9467180E946718821B7B
:1030F000930B0895A1E21A2EAA1BBB1BFD010DC064
:10310000AA1FBB1FEE1FFF1FA217B307E407F50797
:1031100020F0A21BB30BE40BF50B661F771F881F73
:10312000991F1A9469F760957095809590959B0109
:10313000AC01BD01CF010895A29FB001B39FC001B2
:10314000A39F700D811D1124911DB29F700D811DD3
:103150001124911D089597FB072E16F4009407D0B3
:1031600077FD09D00E94C51807FC05D03EF4909564
:1031700081959F4F0895709561957F4F0895EE0F4B
:10318000FF1F0590F491E02D0994AA1BBB1B51E190
:1031900007C0AA1FBB1FA617B70710F0A61BB70BC7
:1031A000881F991F5A95A9F780959095BC01CD016C
:1031B000089581E090E0F8940C94DE18F894FFCF25
:1031C0000364010100320000000000000000000064
:1031D00000000000000000000000000000000000EF
:1031E0003200000000C18081000000FFFFFFFF00EF
:1031F000E100000000000000000000A801EF02AFA5
:1032000002CF01000000006C0A3A0C8D0ACD0AA919
:103210000A820A000000002704000000008002501B
:103220000248023402250224024F4B004631004678
:0232300032006A
:2070000055C000006EC000006CC000006AC0000068C0000066C0000064C0000062C0000043
:2070200060C000005EC00000F2C400005AC0000058C0000056C0000054C0000052C00000EE
:2070400050C0000078C000004CC000004AC0000048C0000046C0000044C0000042C00000BE
:2070600040C000003EC000003CC000003AC0000038C0000036C0000034C0000032C0000048
:2070800030C000002EC000002CC000002AC0000028C0000026C0000024C0000022C00000A8
:2070A00020C000001EC000001CC0000011241FBECFEFDAE0DEBFCDBF11E0A0E0B1E0E2E3BC
:2070C000FFE702C005900D92A83AB107D9F711E0A8EAB1E001C01D92AE3BB107E1F78FD30B
:2070E00026C78ECFF89410926F0010928100109285001092840081E085BF15BE47985D9AEB
:20710000289A0C94000008952091B2013091B3012F5F3F4F3093B3012093B201932F37FFA6
:2071200003C08EEF831B982F990F921710F447980895479A08951F920F920FB60F9211246E
:207140002F938F939F93EF93FF9310928500109284008091A8019091A901009741F00197D3
:207160009093A9018093A801892B09F45D9A8091AA019091AB01009741F001979093AB0126
:207180008093AA01892B09F4289AE0E0F0E0859194918F5F9F4F49F08091AC019091AD0151
:2071A00001969093AD018093AC01FF91EF919F918F912F910F900FBE0F901F90189584E0BC
:2071C0008093E9000DC08091E8008B778093E80003C08EB3882351F08091E80082FFF9CFBE
:2071E0008091E80085FFEFCF8091F1000895982F83E08093E9008091E80085FD0DC0809136
:20720000E8008E778093E80003C08EB3882369F08091E80080FFF9CF9093F1005D9884E6CB
:2072200090E09093A9018093A80108954F925F926F927F928F929F92AF92BF92CF92DF921E
:20724000EF92FF920F931F93CF93DF9384E08093E9008091E80082FF57C2289884E690E067
:207260009093AB018093AA01AADF182F853481F48CE49DE19093AD018093AC0107B600FC4B
:20728000FDCFF999FECF81E180935700E89503C0843519F494DF8DE00DC28C34E1F38035F9
:2072A000D1F3843721F484E4A2DF80E003C2813611F489E5FFC18134B1F481DF182F7FDFE3
:2072C00090E0880F991FAA2797FDA095BA2F312F330F20E0442737FD4095542F822B932B68
:2072E000A42BB52BB8C1803711F483E5E3C1833549F4C0E0D1E089917ADF21E0C730D20714
:20730000D1F7D9C1863521F481E371DF80E3D2C1833731F487E86BDF85E969DF8EE1CAC149
:207320008536B9F4E0E0F0E093E085E090935700E89507B600FCFDCF80935700E89507B65D
:2073400000FCFDCFE058FF4FA0E7E030FA0771F7A2CF823739F4E1E0F0E089E08093570024
:207360008491A8C1863439F4E0E0F0E089E08093570084919FC18E3439F4E3E0F0E089E0E5
:2073800080935700849196C1813539F4E2E0F0E089E08093570084918DC1823631F489E521
:2073A00026DF80E024DF80E885C1823419F0873609F0E5C01092AD011092AC0100DF082FE8
:2073C000FEDEF82EFCDE682E8554823008F071C1902F80E0CF2DD0E0C82BD92B10926F00B3
:2073E000173609F04BC081E180935700E895DD24CC24C3943FC0E090AE01F090AF010091CC
:20740000B0011091B101B6E46B16D9F4ED2DF0E0EE29FF29E4918E2FEADEDD2081F082E08D
:2074200090E0A0E0B0E0E80EF91E0A1F1B1FE092AE01F092AF010093B0011093B101DC2470
:2074400018C0D801C701B695A7959795879559D5CEDE82E090E0A0E0B0E0E80EF91E0A1FF2
:207460001B1FE092AE01F092AF010093B0011093B1012197209709F0BECF7DC08090AE01F5
:207480009090AF01A090B001B090B10196E4691609F05DC083E0F40180935700E89507B63E
:2074A00000FCFDCF54C0F6E46F1661F5772031F1E090AE01F090AF010091B0011091B1019E
:2074C0007EDED82ECC24852D90E08C299D29F7010C0140925700E895112482E090E0A0E08B
:2074E000B0E0E80EF91E0A1F1B1FE092AE01F092AF010093B0011093B10102C060DE582E1A
:20750000742423C0E090AE01F090AF010091B0011091B10116950795F794E79450DE682FFA
:20752000C701F7D48091AE019091AF01A091B001B091B1010296A11DB11D8093AE01909349
:20754000AF01A093B001B093B101219704C05524772444244394209709F0A5CF96E46916B6
:2075600041F485E0F40180935700E89507B600FCFDCF8DE03CDE82E080936F009CC0833492
:2075800071F40091AE011091AF0119DE90E021E0F8010C0120935700E89511247CCE8336C8
:2075A00019F5E090AE01F090AF010091B0011091B10105DEF701E16090E021E00C0120938C
:2075C0005700E895112482E090E0A0E0B0E0E80EF91E0A1F1B1FE092AE01F092AF0100936A
:2075E000B0011093B10157CE8D3661F4E091AE01F091AF0185E080935700E89507B600FCF2
:20760000FDCF49CE823551F4E091AE01F091AF0105911491812FEBDD802F4CC0843421F5FE
:20762000E090AE01F090AF010091B0011091B10116950795F794E794C2DD682FC70169D4DE
:207640008091AE019091AF01A091B001B091B1010296A11DB11D8093AE019093AF01A093D8
:20766000B001B093B10117CE843609F5E090AE01F090AF010091B0011091B101D801C70142
:20768000B695A795979587953CD4B1DD82E090E0A0E0B0E0E80EF91E0A1F1B1FE092AE010A
:2076A000F092AF010093B0011093B10104C08B3111F08FE39CDD83E08093E9009091E8002B
:2076C0008091E8008E778093E80095FF04C010C08EB38823C9F08091E80080FFF9CF809193
:2076E000E8008E778093E80003C08EB3882361F08091E80080FFF9CF84E08093E9008091F1
:20770000E8008B778093E800DF91CF911F910F91FF90EF90DF90CF90BF90AF909F908F90AC
:207720007F906F905F904F9008959091B601892F8F77813249F58091B7018032A1F081328A
:2077400019F5913A09F58091E800877F8093E8008DE091E067E070E00BD28091E8008B770B
:207760008093E8000895913279F48091E800877F8093E8008DE091E067E070E05DD2809192
:20778000E8008E778093E800089582E061EC42E0B5D083E061E842E1B1D084E060E842E1EF
:2077A000ADC084B7877F84BF88E10FB6F89480936000109260000FBE20E880E090E00FB63F
:2077C000F89420936100809361000FBE81E085BF92E095BF3F9A209A559AE1E6F0E02083A1
:2077E000108247985D9A289A109289008AEF8093880090936F0083E080938100F0C0409116
:20780000000850910108109201081092000894B714BE88E10FB6F8948093600010926000D5
:207820000FBE292F30E0F901E270F07091FD18C090FF05C0859194918F5F9F4F81F423FFFF
:207840000FC08091090190910A014817590741F0E0E0F0E0859194918F5F9F4F09F042DC64
:20786000A0DF78941092AD011092AC010CC0DEDC36D38091AC019091AD0181549F4110F00D
:207880001092140141DC80911401882381F78091E00081608093E00025DC80E090E0089598
:2078A000FA01923049F0933061F09130F9F485E191E022E130E01EC087E291E02EE330E04D
:2078C00019C0882329F485E691E024E030E012C0813029F489E691E022E230E00BC0823006
:2078E00029F48DE891E028E130E004C080E090E020E030E091838083C90108958093E9004E
:207900008091EB0081608093EB001092ED006093EC004093ED008091EE00881F8827881F62
:2079200008958091B60188238CF403C08EB38823B1F08091E80082FFF9CF8091E8008B772A
:207940008093E80008958EB3882349F08091E80080FFF9CF8091E8008E778093E800089594
:20796000EF92FF920F931F9345D04CD008ED10E0F80180818F77808380818068808380819B
:207980008F7D808319BC1EBA1092B40180EEE82EF12CF70180818B7F8083F8018081816052
:2079A000808380E060E042E0A9DFE1EEF0E080818E7F8083E2EEF0E0808181608083808144
:2079C00088608083F70180818E7F8083F8018081806180831F910F91FF90EF900895E7ED06
:2079E000F0E08081816080838AE482BF81E08093B501B6CFE8EDF0E080818E7F808310921C
:207A0000E20008951092DA001092E10008951F920F920FB60F9211242F933F934F935F93F6
:207A20006F937F938F939F93AF93BF93EF93FF938091DA0080FF1BC08091D80080FF17C0B2
:207A40008091DA008E7F8093DA008091D90080FF0BC080E189BD82E189BD09B400FEFDCF36
:207A600081E08EBB3BD203C019BC1EBA37D28091E10080FF17C08091E20080FF13C0809138
:207A8000E2008E7F8093E2008091E20080618093E2008091D80080628093D80019BC85E049
:207AA0008EBB1CD28091E10084FF2CC08091E20084FF28C080E189BD82E189BD09B400FEC5
:207AC000FDCF8091D8008F7D8093D8008091E1008F7E8093E1008091E2008F7E8093E20012
:207AE0008091E20081608093E2008091B401882331F48091E30087FD02C081E001C084E067
:207B00008EBBECD18091E10083FF21C08091E20083FF1DC08091E100877F8093E10082E06A
:207B20008EBB1092B4018091E1008E7F8093E1008091E2008E7F8093E2008091E2008061E9
:207B40008093E20080E060E042E0D8DEC7D1FF91EF91BF91AF919F918F917F916F915F9130
:207B60004F913F912F910F900FBE0F901F9018959C014091BC015091BD014617570718F49D
:207B8000F90190E044C06115710511F0AB01F8CF8091E8008E778093E80040E050E0F0CF0F
:207BA0008EB3882309F444C0853009F443C08091E80083FF02C081E008958091E80082FD70
:207BC00031C08091E80080FF22C08091F3009091F200782F60E0292F30E0262B372B07C07A
:207BE00081918093F100415050402F5F3F4F4115510519F02830310598F390E02830310566
:207C000009F491E08091E8008E778093E8004115510531F6992321F605C08EB3882341F075
:207C2000853041F08091E80082FFF7CF80E0089582E0089583E008959C016115710529F47C
:207C40008091E8008B778093E800F90126C08EB3882391F1853091F18091E80083FF02C06C
:207C600081E008958091E80082FFF1CF06C08091F10081936150704059F02091F300809191
:207C8000F200322F20E090E0822B932B892B79F78091E8008B778093E80061157105B9F601
:207CA00005C08EB3882341F0853041F08091E80080FFF7CF80E0089582E0089583E00895C2
:207CC0000F931F93DF93CF9300D0CDB7DEB7E6EBF1E08091F100819381E0EE3BF807C9F792
:207CE00024DD8091E80083FFE4C08091B6019091B701953009F46DC0963040F4913081F1A7
:207D0000913070F0933009F0D4C02AC0983009F4A3C0993009F4B2C0963009F0CAC07CC023
:207D2000803809F4C6C0823809F0C3C08091BA0187708093E9008091EB001092E9002091DB
:207D4000E800277F2093E80090E025E0969587952A95E1F781708093F1001092F10087C0D8
:207D6000882319F0823009F0A4C08F71823009F0A0C08091B801882331F52091BA01277097
:207D800009F497C02093E9008091EB0080FF1BC0933021F48091EB00806213C08091EB0018
:207DA00080618093EB0081E090E002C0880F991F2A95E2F78093EA001092EA008091EB00E5
:207DC00088608093EB001092E9008091E800877F51C0882309F06DC01091B8011F770FB79B
:207DE000F8948091E800877F8093E8009ADD8091E80080FFFCCF8091E3008078812B809398
:207E0000E30080688093E300112311F482E001C083E08EBB0FBF4DC08058823008F049C033
:207E20008091B8019091B9016091BA01AE014F5F5F4F36DDBC01009709F43BC08091E8008E
:207E4000877F8093E80089819A8192DE8091E8008B778093E8002DC0803859F58091E800AA
:207E6000877F8093E8008091B4018093F1008091E8008E778093E80054DD1BC08823C9F4CA
:207E80009091B8019230A8F48091E800877F8093E8009093B40145DD8091B401882331F420
:207EA0008091E30087FD02C081E001C084E08EBB6CDC8091E80083FF0AC08091EB0080624E
:207EC0008093EB008091E800877F8093E8000F900F90CF91DF911F910F91089508951F9360
:207EE0008EB3882361F01091E9001092E9008091E80083FF01C0E4DE17701093E9001F916F
:207F00000895F999FECF92BD81BDF89A992780B50895262FF999FECF1FBA92BD81BD20BDBD
:207F20000FB6F894FA9AF99A0FBE01960895F894FFCF4341544552494E4100777700080031
:207F40000000000000080112011001020000084123360001000201000109023E00020100FF
:207F600080320904000001020201000524001001042402040524060001070582030800FF0C
:207F800009040100020A000000070504021000010705830210000104030904220341007216
:207FA000006400750069006E006F0020004C0065006F006E006100720064006F0000001836
:1A7FC00003410072006400750069006E006F0020004C004C004300000000D7
:00000001FF
