:100000000C9477010C949F010C949F010C949F0118
:100010000C949F010C949F010C949F010C949F01E0
:100020000C949F010C949F010C945C0A0C94270B78
:100030000C949F010C949F010C949F010C949F01C0
:100040000C949F010C949F010C949F010C949F01B0
:100050000C949F010C949F010C949F010C943D0FF4
:100060000C949F010C949F010C949F010C949F0190
:100070000C949F010C949F010C949F010C949F0180
:100080000C949F010C949F010C949F010C949F0170
:100090000C946E030C949F010C949F010C949F018F
:1000A0000C949F010C949F010C949F016F0D720D95
:1000B000610D650D6B0D930D930D930D760D7A0DFE
:1000C0007E0D840D880D930D8E0D5D1062106710EE
:1000D00071107B10C510C510C51085108F109910B8
:1000E000A310B010C510B810CB11D4116F126F123D
:1000F0006F126F126F126F126F126F126F126F12F8
:100100006F126F126F126F126F126F126F126F12E7
:100110006F126F126F126F126F126B118711211213
:10012000281211116F126F126F123D11C8116F1248
:1001300036126F126F126F126F122F116F126F1231
:100140006F126F12F51054116F126F126F12DB11D4
:100150006F12E2116F126F126F1268117E11FA1096
:10016000BF110B110E116F126F12FF10F7116F12EA
:100170006A12C6116F1219121B122211A511AA11AF
:100180001F1210126F1251112C111D126F12E91152
:100190006F12F011000000002300260029002C003F
:1001A0002F000404040404030405020202020403F1
:1001B0000202020206060606060604040202020401
:1001C0000404080201104080401020408040800854
:1001D00002040180402010020110801020404020C5
:1001E0000000000200090F0000030401000C0000E1
:1001F00000000000000000000000000000000007F8
:100200000605040100080A0B0C0D0900000000247B
:100210000027002A002D00300000000000250028E3
:10022000002B002E003100080B0002020201000921
:100230000400000102020000052400100105240151
:1002400001010424020605240600010705810310AC
:10025000004009040100020A0000000705020240F4
:100260000000070583024000000403090412010096
:1002700002EF0201404123368000010102030141E7
:10028000726475696E6F204C4C43004172647569ED
:100290006E6F204C656F6E6172646F00050109041A
:1002A000A1018506050919012920150025017501FF
:1002B000952081020501A100093009310933093473
:1002C00016008026FF7F75109504810209320935DA
:1002D0001580257F750895028102C005010939093D
:1002E0003915012508950275048102C07B1B112474
:1002F0001FBECFEFDAE0DEBFCDBF11E0A0E0B1E07E
:10030000E2E5F9E302C005900D92A639B107D9F7ED
:1003100023E0A6E9B1E001C01D92A237B207E1F7E0
:1003200011E0C7E7D1E004C02197FE010E94881CBC
:10033000C637D107C9F70E943C130C94A71C0C9434
:100340000000DC01FB0112968C91129790E0248151
:10035000358182179307D1F491818081813A31F4FC
:1003600081E0913091F0933089F411C0813271F4C1
:100370009B3021F482811F968C9305C09A3031F412
:10038000828150968C9381E00895089580E00895CD
:10039000DC01FB0188E4808389E4818384E4828337
:1003A0001D969C911D979F709F5B93831D968D91C9
:1003B0009C911E9724E0969587952A95E1F78F707A
:1003C0008F5B848385E00895FC0182818F5BFB0154
:1003D000808381E0089585ED8093BC008091BC000E
:1003E00084FDFCCF1092C101089540915802262F40
:1003F00030E0240F311D21323105DCF42091C101A0
:100400002430C9F4FC0180E090E0861758F4309164
:1004100058022191DC01AA5CBD4FA30FB11D2C93A2
:100420000196F3CF80915802680F6093580280E0E4
:10043000089581E0089582E008950895E0919A0179
:1004400080919901E81730F4F0E0EA5EFD4F808179
:1004500090E008958FEF9FEF089590919A01809119
:100460009901981750F4E92FF0E0EA5EFD4F2081E2
:1004700030E09F5F90939A0102C02FEF3FEFC901D8
:1004800008958091990190E020919A01821B910931
:100490000895CF92DF92EF92FF920F931F93CF9325
:1004A000DF937C01262F972F8A018091C201882338
:1004B00091F0C62FD72F6E01C40ED51ECC15DD05C9
:1004C00071F06991D701ED91FC910190F081E02DDF
:1004D000C7010995F3CF642F822F0E94F501C8014F
:1004E000DF91CF911F910F91FF90EF90DF90CF9010
:1004F0000895CF93DF931F92CDB7DEB76983209124
:10050000C2012223D1F02091E401203240F021E009
:1005100030E0FC013383228380E090E015C08091BD
:10052000C301E82FF0E0EC53FE4F998190838F5F79
:100530008093C3018093E40105C061E0CE01019680
:100540000E94F50181E090E00F90DF91CF91089536
:10055000EF92FF920F931F93CF93DF93FB012081C4
:10056000213851F52381223239F5DC0112962C9184
:1005700030E04481558142175307F1F4EC010B85BB
:100580001C85E12CF12C0115110591F0F801448135
:1005900055816281738180E80E94CE0A8F3FFFEF10
:1005A0009F0769F0E80EF91ED8010D911C91EBCF61
:1005B00081E08F87C70105C080E090E002C08FEF27
:1005C0009FEFDF91CF911F910F91FF90EF900895D2
:1005D000CF93DF93CDB7DEB769970FB6F894DEBF40
:1005E0000FBECDBFFC01DB018C918F5F8C93BE01F0
:1005F0006F5F7F4F89E1DB011D928A95E9F729E062
:10060000298384E08A8391E09D8383E08E832A8717
:1006100021E22B879C879D879F8722E2288B27E0FA
:100620002B8B25E02C8B8E8B20E430E0388F2F8BAA
:10063000998F82818B8395858685998B8A8B83811F
:1006400080688D8B49E150E080E00E94CE0A699677
:100650000FB6F894DEBF0FBECDBFDF91CF910895E6
:10066000EF92FF920F931F93CF93DF931F92CDB71B
:10067000DEB78B017A0180913F03811107C08EE2C2
:1006800093E00E94870F81E080933F0386E0898397
:1006900041E050E0BE016F5F7F4F809131030E94C7
:1006A000650E97FD07C080913103A701B8018064F2
:1006B0000E94650E0F90DF91CF911F910F91FF90D7
:1006C000EF900895682F80E10E94940D60E08FE024
:1006D0000E94940D61E08FE00C94940D1F920F9294
:1006E0000FB60F9211242F933F934F935F936F9305
:1006F0007F938F939F93AF93BF93EF93FF938091DB
:10070000B900887F803609F49CC068F5883209F406
:100710005BC090F4803109F454C038F4882309F4A4
:10072000F6C0883009F44DC0F6C0883109F44CC0D9
:10073000803209F45DC0EFC0803409F468C048F429
:10074000803309F455C0883309F0E5C08093BF01B8
:10075000D8C0803509F44FC0883509F45DC08834AD
:1007600009F0D9C0D6C0883909F4C7C0A8F48837C1
:1007700009F467C038F4883609F463C0803709F497
:1007800060C0C9C0883809F4B8C0803909F45FC0B6
:10079000803809F0C0C05BC0803B09F486C038F4E3
:1007A000803A09F466C0883A09F47FC0B4C0803C3E
:1007B00009F4A7C0883C09F4A4C0883B09F48AC0A6
:1007C000AAC080919C0110C09091BE018091BD0192
:1007D000981770F5E091BE0181E08E0F8093BE0105
:1007E000F0E0E356FE4F80818093BB0085EC86C02D
:1007F0008093BF018EC0E091BE0181E08E0F809397
:10080000BE018091BB00F0E0E356FE4F80839091E3
:10081000BE018091BD016EC0E091BE0181E08E0FEE
:100820008093BE018091BB00F0E0E356FE4F8083D1
:100830008091C00181116DC081E080939B0184EAA9
:1008400061C083E08093C10110927C02CFCF809180
:100850007C02803208F051C0E0917C0281E08E0F72
:1008600080937C028091BB00F0E0E45AFD4F8083CE
:10087000BDCF85EC8093BC001092C10180917C02B9
:10088000803230F4E0917C02F0E0E45AFD4F1082B7
:1008900060917C0270E0E0915A02F0915B028CE57D
:1008A00092E0099510927C0236C084E08093C101E9
:1008B0001092590210925802E0915602F09157029C
:1008C000099580915802811105C081E080935802FA
:1008D00010923602E091590281E08E0F8093590206
:1008E000F0E0EA5CFD4F80818093BB00909159025B
:1008F00080915802981708F479CF85E88093BC005E
:100900000AC085EC8093BC001092C10104C0109213
:10091000BF010E94EB01FF91EF91BF91AF919F91B9
:100920008F917F916F915F914F913F912F910F9098
:100930000FBE0F901F9018950F931F93CF93082F02
:1009400060E088E00E94940D81E00E946203C8E0AC
:1009500010E0C150C8010C2E02C0959587950A94ED
:10096000E2F781700E946203C111F3CF61E088E079
:10097000CF911F910F910C94940D0F931F93CF93D0
:10098000082F60E088E00E94940D80E00E946203DE
:10099000C8E010E0C150C8010C2E02C095958795A3
:1009A0000A94E2F781700E946203C111F3CF61E003
:1009B00088E0CF911F910F910C94940D61E080E13C
:1009C0000E94C40D61E08FE00E94C40D61E088E0E8
:1009D0000E94C40D61E086E00E94C40D60E086E0E4
:1009E0000E94940D6AE070E080E090E00E942B0E7F
:1009F00061E086E00E94940D6AE070E080E090E0A3
:100A00000E942B0E89EB0E94BD048FEF0E949C0474
:100A100083E80E949C0483E60E949C0481EB0E9470
:100A2000BD0481E80E949C0480E30E949C0484E051
:100A30000E949C0484E30E949C0482E00E949C0427
:100A400083E10E949C0481E10E949C0480E00E945A
:100A50009C048AE30E949C0482E40E949C048FE32D
:100A60000E949C048FE30E949C0484EB0E94BD04BE
:100A700088E00E949C0482E10E949C0482E70E941C
:100A80009C0482E10E949C0486E00E949C0483E016
:100A90000E949C0484E50E949C0483E00E949C04C4
:100AA0008EE40E949C048FEB0E94BD0480E00E94B3
:100AB0009C0480E10E949C0486EB0E94BD0482E1BC
:100AC0000E949C0483EB0E94BD0481E00E949C0470
:100AD00086E30E94BD048AE00E949C048CEC0E9484
:100AE000BD0482E00E949C0480EE0E94BD0480E070
:100AF0000E949C0480E80E949C0480E00E949C0468
:100B00008CE80E949C0483E10E949C0487EA0E9476
:100B10009C0485E00E949C048DE00E949C0480E57A
:100B20000E949C0484E10E949C0486E10E949C0433
:100B300085E50E949C0486E10E949C0487E80E944F
:100B40009C0483E00E949C0480E00E949C0480E856
:100B50000E949C0480E00E949C048CE80E949C04FB
:100B600083E10E949C0487EA0E949C0485E00E9425
:100B70009C048DE00E949C0480E50E949C0484E11A
:100B80000E949C0486E10E949C0485E50E949C04CE
:100B900086E10E949C0487E80E949C0483E00E94F6
:100BA0009C048AE30E94BD0480E60E949C0481E1CB
:100BB0000E94BD0466E970E080E090E00E942B0E88
:100BC00089E20E94BD0466E970E080E090E00C9448
:100BD0002B0E2F923F924F925F926F927F928F9245
:100BE0009F92AF92BF92CF92DF92EF92FF920F93BC
:100BF0001F93CF93DF93CDB7DEB760970FB6F8940E
:100C0000DEBF0FBECDBF109233011092340110929F
:100C1000170188E10E94000E8C3F9340A4F461E02C
:100C200088E10E94C40D68EC70E080E090E00E94D2
:100C30002B0E60E088E10E94C40D62E370E080E06A
:100C400090E00E942B0E88E10E94000E8B5F9109BC
:100C50008D3E924020F481E08093170102C01092F3
:100C600017018BE10E94000E8C3F93403CF48CE115
:100C70000E94000E8C3F93400CF45AC18BE10E94FD
:100C8000000E4C016C018CE10E94000E988B8F8746
:100C90003C01883C910530F021E02D8338EC83162F
:100CA000910408F41D8282E10E94000E8C3F934063
:100CB0003CF483E10E94000E8C3F93400CF455C13C
:100CC00082E10E94000E7C012C0183E10E94000E53
:100CD0008C011C01883C910530F021E02A8738EC1A
:100CE000E316F10408F41A860E94310F6B877C87A3
:100CF0008D879E8719870887FF82EE824F855889E6
:100D00005C834B839A8289820E94310FDC01CB0184
:100D10002B853C854D855E85821B930BA40BB50B03
:100D200080319742A105B10508F092C061E085E0ED
:100D30000E94940D5D815523F1F18BE10E94000E1C
:100D40005C0161E070E080E090E00E942B0E8CE19D
:100D50000E94000E29813A81280D391D37FF02C0FB
:100D60002F5F3F4F6901D594C7942B813C814F85FC
:100D70005889240F351F37FF02C02F5F3F4F3901BD
:100D800075946794A814B90408F445012F8538892F
:100D90008217930710F4988B8F8749815A814A15DF
:100DA0005B0510F4BA82A9822B813C812817390790
:100DB00010F49C838B833A853323C9F182E10E942E
:100DC000000E5C0161E070E080E090E00E942B0E7C
:100DD00083E10E94000E2E813F812E0D3F1D37FFC3
:100DE00002C02F5F3F4F29015594479428853985CC
:100DF000200F311F37FF02C02F5F3F4F190135947D
:100E00002794AE14BF0408F475018017910708F405
:100E10008C014E815F814A155B0510F4BF82AE8262
:100E2000288539852817390710F49987888768E25B
:100E300070E080E090E00E942B0E60E085E00E9470
:100E4000940D68E270E080E090E00E942B0E5CCF91
:100E500029813A812C193D098B819C81861997093A
:100E60008C189D0890921E0180921D014F85588913
:100E7000461957095093200140931F0130932201D6
:100E8000209321019093240180932301D0921A0191
:100E9000C092190170921C0160921B014D81409318
:100EA00033012E813F81241935098885998582195E
:100EB0009309E418F508F0922A01E0922901021939
:100EC000130910932C0100932B0130932E012093D2
:100ED0002D019093300180932F0150922601409272
:100EE000250130922801209227015A855093340120
:100EF00082E390E0909332018093310160960FB6C7
:100F0000F894DEBF0FBECDBFDF91CF911F910F913F
:100F1000FF90EF90DF90CF90BF90AF909F908F9019
:100F20007F906F905F904F903F902F900C94FF0FA9
:100F300061E08BE10E94C40D61E08CE10E94C40D70
:100F400068EC70E080E090E00E942B0E60E08BE1A6
:100F50000E94C40D60E08CE10E94C40D62E370E069
:100F600080E090E00E942B0E89CE61E082E10E9439
:100F7000C40D61E083E10E94C40D68EC70E080E084
:100F800090E00E942B0E60E082E10E94C40D60E0C0
:100F900083E10E94C40D62E370E080E090E00E9473
:100FA0002B0E8ECECF92DF92EF92FF921F93CF93B4
:100FB000DF93CDB7DEB760970FB6F894DEBF0FBEF4
:100FC000CDBF8091C1018111FCCF81E08093C1012F
:100FD0008093C0019FEF9093BF011092BE01809358
:100FE000BD0180939C0180919C01886480939C0149
:100FF00080919B01813061F410929B0180919C0152
:101000008093BB008091BC0083FDF8CF85EC01C0CC
:1010100085EE8093BC008091C1018130E1F3809125
:10102000BE01823018F48091BE0101C082E0ADE9BA
:10103000B1E026E132E0F9019E2F921B981718F4D7
:101040009D919193F9CF10929A018093990110E0AC
:101050009091990180919A01981729F188E593E080
:101060000E942D02809548E0149FB001112420E0D9
:1010700030E090E0F901E60FF71F41E050E04C0F3F
:101080005D1FE40FF51FAC01022E02C05595479578
:101090000A94E2F7417040832F5F3F4F28303105BB
:1010A00049F71F5FD5CF88898093E5018E858093AE
:1010B000E60189858093E7018F858093E8018A8125
:1010C0008093E90189818093EA018C818093EB010F
:1010D0008B818093EC018B858093ED018A858093D1
:1010E000EE018D818093EF018E818093F0018F81DD
:1010F0008093F10188858093F2018D858093F301BF
:101100008C858093F40180E090E0C12CD12C760195
:10111000C394FC01EB51FE4F2081222381F02091EA
:10112000F701B701A601082E04C0440F551F661F22
:10113000771F0A94D2F7422B4093F70111C03091E8
:10114000F701B701A601082E04C0440F551F661F02
:10115000771F0A94D2F74095242F23232093F70179
:10116000019688309105A9F680E090E0C12CD12C41
:101170007601C394FC01E351FE4F3081332381F0AB
:101180003091F801B701A601082E04C0440F551F85
:10119000661F771F0A94D2F7432B4093F80111C0C2
:1011A0003091F801B701A601082E04C0440F551F65
:1011B000661F771F0A94D2F74095242F232320938C
:1011C000F801019688309105A9F68091F701909178
:1011D000F901892B8093F9018091F8019091FA012E
:1011E000892B8093FA0160960FB6F894DEBF0FBE8C
:1011F000CDBFDF91CF911F91FF90EF90DF90CF9007
:10120000089540919402509195022091920230915C
:10121000930242175307B4F49091E8009570E1F3FC
:101220009091E80092FD19C08093F10080919402A2
:101230009091950201968F739927892B19F48EEF5F
:101240008093E8008091940290919502019690938A
:1012500095028093940281E0089580E00895CF92F2
:10126000DF92EF92FF920F931F93CF93DF931F9222
:10127000CDB7DEB7182F062FE42E862F880F8E5F8E
:1012800099830E94010983E00E940109F12EC12E79
:101290009981D92E8C2D8F19801798F4F601E7FECD
:1012A00002C0849101C080810E940109182F80E052
:1012B0000E9401098123FFEFCF1ADF0A8111EACFD3
:1012C00001C081E00F90DF91CF911F910F91FF90AE
:1012D000EF90DF90CF900895615030F02091F100B1
:1012E000FC0120830196F8CF289884E68093DC02E5
:1012F0000895CF92DF92EF92FF920F931F93CF93B7
:10130000DF936C017A018B01C0E0D0E0CE15DF05E0
:1013100089F0D8016D918D01D601ED91FC9101907C
:10132000F081E02DC6010995892B11F47E0102C0E0
:101330002196ECCFC701DF91CF911F910F91FF90C4
:10134000EF90DF90CF90089580918A0281110DC0B7
:1013500082E08093860284E0809387021092890263
:101360001092880281E080938A0286E892E00895D4
:10137000CF93DF931F92CDB7DEB76983DC01ED9188
:10138000FC910280F381E02D41E050E0BE016F5FEF
:101390007F4F09950F90DF91CF91089583E080935F
:1013A000E9008091F200882319F08AE38093E80035
:1013B0000895FC018485958597FD0BC09FB7F8942F
:1013C00082E08093E9008091F2009FBF90E0019657
:1013D00008959FB7F89482E08093E9008091F2002D
:1013E0009FBF90E008953FB7F8948091820290915A
:1013F0008302A0918402B091850226B5A89B05C006
:101400002F3F19F00196A11DB11D3FBFBA2FA92F83
:10141000982F8827820F911DA11DB11DBC01CD0100
:1014200042E0660F771F881F991F4A95D1F70895EC
:101430000E94A21CCF93DF931F92CDB7DEB7FC01B1
:101440008485958597FD05C02FEF3FEF358724876D
:101450000BC0CE0101960E94C612019719F4898132
:1014600090E002C08FEF9FEF0F90DF91CF91089532
:101470000F931F93CF93DF931F92CDB7DEB78C01ED
:10148000FC018485958597FF0EC0CE0101960E94D0
:10149000C612019719F4298130E002C02FEF3FEF07
:1014A000F80135872487F801848595850F90DF91B1
:1014B000CF911F910F9108951F920F920FB60F9227
:1014C00011248F939F938091E1009091E100937F8D
:1014D0009093E10083FF0FC01092E90091E0909398
:1014E000EB001092EC0092E39093ED001092DD027D
:1014F00098E09093F00082FF20C093E09093E90081
:101500009091F200992319F09AE39093E80090915A
:101510009602992339F090919602915090939602F9
:10152000992389F19091DC02992339F09091DC02A2
:1015300091509093DC02992341F184FF10C0809177
:10154000E2008E7E81608093E2008091E1008F7ED8
:101550008093E100809197018E7E806111C080FFB1
:1015600016C08091E2008E7E80618093E2008091BF
:10157000E1008E7E8093E100809197018E7E8160F4
:101580008093970104C05D9ACDCF289AD6CF9F91C2
:101590008F910F900FBE0F901F901895DF92EF92D2
:1015A000FF920F931F93CF93DF93D82E8A017B0175
:1015B000E40EF51EEB01CE15DF0571F0D7FE03C07A
:1015C000FE01849101C088810E9401092196811148
:1015D000F2CF8FEF9FEF01C0C801DF91CF911F9134
:1015E0000F91FF90EF90DF9008950F931F93CF938B
:1015F000DF931F92CDB7DEB782E0898342E450E0EB
:1016000067E272E080E80E94CE0A0E94A409DC0131
:1016100012960D911C9113970115110569F0D801CF
:10162000ED91FC910280F381E02DBE016F5F7F4F51
:10163000C801099597FF07C089810F90DF91CF916D
:101640001F910F910895F80100851185E5CF1F9234
:101650000F920FB60F921124CF92DF92EF92FF926A
:101660000F931F932F933F934F935F936F937F93AA
:101670008F939F93AF93BF93EF93FF93CF93DF939A
:10168000CDB7DEB76C97DEBFCDBF1092E900809179
:10169000E80083FFEDC168E0CE0145960E946C0929
:1016A00082EF8093E8008D8987FF05C09091E80064
:1016B00090FFFCCF03C09EEF9093E800982F9076A8
:1016C00009F0C6C09E892F89188D91110CC08038F1
:1016D00029F4809198018093F10002C01092F100EA
:1016E0001092F10048C1422F50E0512B913051F43B
:1016F000811141C14130510509F03DC180919801EE
:101700008D7F0BC0933061F4811135C1413051059B
:1017100009F031C1809198018260809398012BC1BA
:10172000953041F48091E80080FFFCCF2068209341
:10173000E30021C1963009F05FC0EB8CFC8C109265
:10174000E9001092950210929402123091F51092D5
:101750009302109292020E94F50A99E0BE016F5F17
:101760007F4FDB01E92F1D92EA95E9F799831A83F0
:1017700091E09E8390EA98879AEF9987209194024E
:1017800030919502275F3F4F3C832B838D831092CE
:10179000E9001092950210929402F0929302E09266
:1017A000920249E050E080E00E94CE0A0E94F50AD1
:1017B000E2C0F0929302E09292020E94A409DC013E
:1017C0001296ED90FC901397E114F10409F4C0C057
:1017D000D701ED91FC910480F581E02DBE016B5E97
:1017E0007F4FC7010995009719F00CF0C4C0C7C01E
:1017F000F701E084F184E8CF973009F4C0C0983055
:1018000021F481E08093F100B6C0993009F0B3C0B3
:10181000837009F0B4C0EAE3F1E081E021E036E34F
:101820009081992361F08093E9002093EB009191DE
:101830009093EC003093ED008F5F873089F78EE74F
:101840008093EA001092EA008F898093DD0293C0B2
:101850008B8D9C8D1092E90010929502109294024B
:101860009093930280939202898D811156C08E8944
:101870009D89913A59F4813209F081C047E050E0E6
:1018800064E471E080E00E94CE0A75C0913209F0F4
:1018900076C0833289F4888D90E0982F88272F892D
:1018A000822BA0E0B0E08093400190934101A0938F
:1018B0004201B09343015FC0803269F48091E80037
:1018C00082FFFCCF67E084E491E00E946C098BEF1B
:1018D0008093E80006C0823209F04DC08F89809362
:1018E0004B0180919601882319F0EEEFFAE002C0D7
:1018F000E0E0F8E08091440190914501A09146011B
:10190000B0914701803B9440A105B10509F07BC02F
:1019100080914B0180FF93C076C00E94A409DC0136
:1019200012960D911C9113970115110541F1D801E3
:10193000ED91FC910190F081E02DBE016B5E7F4F37
:10194000C8010995811117C0F80100851185ECCFF8
:10195000113009F44EC0133091F48F89882309F4B3
:1019600045C0823081F440E860E18BE892E00E945B
:101970002F09882321F08EEF8093E80079C081E25F
:101980008093EB0075C0813029F440E86BE08FE76D
:1019900092E0EDCF833099F70E94A409DC01129602
:1019A000ED90FC9013978E010F5F1F4F6801E114BB
:1019B000F10479F0D701ED91FC910680F781E02DDB
:1019C000B801C7010995080F111DF701E084F184E2
:1019D000EECFD8011C92F60101900020E9F7319773
:1019E000BF016C197D0940E0C601C1CF69E672E014
:1019F00002C06DE672E06115710509F2FB014491C8
:101A000050E080E840CF0FB6F894A8958091600030
:101A1000886180936000109260000FBEA895EE3F31
:101A20002AE0F20739F08091FE0A9091FF0A918333
:101A30008083A1CF1092FF0A1092FE0A9CCFEE3F46
:101A40008AE0F80731F0808191819093FF0A8093BA
:101A5000FE0A87E797E7918380839BE088E10FB6D2
:101A6000F894A895809360000FBE9093600083CF98
:101A70006C960FB6F894DEBF0FBECDBFDF91CF914D
:101A8000FF91EF91BF91AF919F918F917F916F9156
:101A90005F914F913F912F911F910F91FF90EF9088
:101AA000DF90CF900F900FBE0F901F90189590E091
:101AB000FC013197EF30F105B0F5EA5AFF4F0C9475
:101AC000881C809180008F7703C0809180008F7D7B
:101AD00080938000089580918000877FF9CF84B53E
:101AE0008F7702C084B58F7D84BD0895809190006A
:101AF0008F7707C0809190008F7D03C08091900008
:101B0000877F8093900008958091C0008F7703C0F5
:101B10008091C0008F7D8093C00008958091C200A5
:101B2000877F8093C20008951F93CF93DF93282F60
:101B300030E0F901E052FE4F8491F901EF53FE4F7E
:101B4000D491F901EE55FE4FC491CC23C9F0162F64
:101B500081110E94570DEC2FF0E0EE0FFF1FE75EA2
:101B6000FD4FA591B4918FB7F894111105C09C91C8
:101B7000ED2FE095E92302C0EC91ED2BEC938FBFA4
:101B8000DF91CF911F910895CF93DF9390E0FC01F7
:101B9000EF53FE4F2491FC01EE55FE4F84918823B4
:101BA00061F190E0880F991FFC01E55FFD4FC59141
:101BB000D491FC01E75EFD4FA591B491611109C07C
:101BC0009FB7F8948881209582238883EC912E23F7
:101BD0000BC0623061F49FB7F8943881822F8095F2
:101BE00083238883EC912E2B2C939FBF06C08FB745
:101BF000F894E8812E2B28838FBFDF91CF91089531
:101C0000823108F08251E82FF0E0E150FE4FE4917C
:101C100080917B00E3FB222720F930E095E0220F42
:101C2000331F9A95E1F78F7D282B20937B00E77077
:101C3000E064E0937C0080917A00806480937A0075
:101C400080917A0086FDFCCF809178002091790008
:101C500090E0922B08958F929F92AF92BF92CF9275
:101C6000DF92EF92FF926B017C010E94F3094B011E
:101C70005C01C114D104E104F104F1F00E94F30904
:101C8000DC01CB0188199909AA09BB09883E934058
:101C9000A105B10570F321E0C21AD108E108F108ED
:101CA00088EE880E83E0981EA11CB11CC114D104DB
:101CB000E104F10419F7DDCFFF90EF90DF90CF90B2
:101CC000BF90AF909F908F9008956F927F929F9258
:101CD000AF92BF92CF92DF92EF92FF920F931F933A
:101CE000CF93DF9300D01F92CDB7DEB7382F8B0193
:101CF0008091DD02811103C08FEF9FEF8BC0809137
:101D0000970180FF05C08091E00082608093E00031
:101D10003A01F12C8AEFE82E832F8770C82E90E4C9
:101D2000B92E832F8072A82E832F8074982E2AE3D9
:101D3000D22E6114710409F466C08FB7F894C09272
:101D4000E9009091E80095FF05C09091F2002B2DDD
:101D5000291B01C020E08FBF211110C0EA94EE20A2
:101D600059F261E070E080E090E039834A835B8360
:101D70000E942B0E39814A815B81DBCF822F90E05C
:101D8000681679060CF4262D6FB7F894C092E90016
:101D90008091E80085FF35C0822F90E0681A790AAB
:101DA000AA2029F02150A8F01092F100FBCFF801F1
:101DB00037FF07C0215058F074917093F1003196AD
:101DC000F9CF215020F071917093F100FACF080FF4
:101DD000191FFF2019F0D092E8000BC08091E80095
:101DE00085FD09C0D092E800FF24F39461147104CA
:101DF00041F0F12C06C06114710419F49110D092D5
:101E0000E8006FBF96CFF11098CF5D9884E680937D
:101E10009602CA010F900F900F90DF91CF911F9102
:101E20000F91FF90EF90DF90CF90BF90AF909F9079
:101E30007F906F900895CF93DF93EC0180914B01D9
:101E4000882331F083E00E94650E1816190634F0DD
:101E500081E090E09B838A8380E090E0DF91CF91E6
:101E600008952FB7F89460917E0270917F0280915F
:101E70008002909181022FBF08951F920F920FB69A
:101E80000F9211242F933F938F939F93AF93BF9300
:101E900080917E0290917F02A0918002B091810298
:101EA00030917D0223E0230F2D3720F40196A11DF0
:101EB000B11D05C026E8230F0296A11DB11D209378
:101EC0007D0280937E0290937F02A0938002B09364
:101ED00081028091820290918302A0918402B0914C
:101EE00085020196A11DB11D809382029093830209
:101EF000A0938402B0938502BF91AF919F918F917F
:101F00003F912F910F900FBE0F901F901895CF9378
:101F1000DF93EC0181E08C838D839E01265F3F4F30
:101F20003F832E83198618862FE531E03983288375
:101F30001C861B861E861D868F87888B81EC8A8770
:101F40000E94A409FC0121818C8190E0820F911DE7
:101F5000089774F5A281B381109719F4D383C283D3
:101F60000CC018968D919C911997009711F0DC0187
:101F7000F8CF1996DC93CE93189780818A8381815C
:101F80008B8390818D81890F808380E09C8189176C
:101F900078F4AE81BF81A80FB11D9C91A181B0E002
:101FA000A75CBE4F9C9391819F5F91838F5FEECF23
:101FB000DF91CF910895CF93C92F682F8EED92E0D6
:101FC0000E94B8096C2F8EED92E0CF910C94B80965
:101FD0000F931F93CF93DF9302E011E0C0E0D0E0B6
:101FE000CE010E94FB1BF80181938F012196C7331C
:101FF000D105B1F7DF91CF911F910F9108950F9304
:102000001F93CF93DF9302E011E0C0E0D0E0F8012E
:1020100061918F01CE010E94031C2196C733D10527
:10202000B1F7DF91CF911F910F910895882329F087
:1020300081E08093140160E003C01092140161E01C
:102040008DE00E94C40D0C94FF0FCF92DF92EF92AF
:10205000FF92853608F084E680931201A82FB0E045
:1020600025E13FEF4FEF5FEF0E94301C24E630E0A8
:1020700040E050E00E94111C69017A018BEEC80E0D
:10208000D11CE11CF11C61E08BE00E94C40DC11465
:10209000D104E104F10411F460E07FC0EBEEF1E063
:1020A000E4918E2F90E0FC013197EF30F10508F0BC
:1020B0006CC0EB59FF4F0C94881C84B5806884BDBC
:1020C000C7BC6EC084B5806284BDC8BC69C0809145
:1020D0008000806880938000D0928900C092880040
:1020E0005FC080918000806280938000D0928B00DE
:1020F000C0928A0055C080918000886080938000E3
:10210000D0928D00C0928C004BC08091900080686E
:1021100080939000D0929900C092980041C0809125
:102120009000806280939000D0929B00C0929A00B1
:1021300037C080919000886080939000D0929D007D
:10214000C0929C002DC08091C00080688093C00028
:102150008091C0008F7B8093C000C092CF0020C0D0
:102160008091C00080628093C000C092D00018C0EF
:102170008091C20088608093C2008091C2008B7FF2
:102180008093C200C092D2000BC080E8C816D10470
:10219000E104F1040CF480CF61E08BE00E94940D27
:1021A000FF90EF90DF90CF900C94FF0F0F931F9351
:1021B000CF93DF938EED92E00E94D909181619068D
:1021C0000CF0C5C18EED92E00E941A0A082E000C98
:1021D000990BAA0BBB0BFC01B897E635F10508F08B
:1021E0007EC1EC58FF4F0C94881C6091F5017091F2
:1021F000F60108C08091F5019091F60114C160913B
:10220000150170E080E090E04AE0DF91CF911F91EE
:102210000F910C94F0126091160116C06091160196
:10222000F0CF8EED92E00E94D909019709F057C1D5
:102230008EED92E00E941A0A853608F084E68093BB
:102240001601AFC0609112018EED92E0DF91CF9147
:102250001F910F910C94B80960911201D2CF8EEDAD
:1022600092E00E94D909019709F039C18EED92E000
:102270000E941A0A0E9425102FC18EED92E00E9442
:10228000D909019709F02BC18EED92E00E941A0A3C
:10229000813321F481E08093150183C010921501F0
:1022A00080C060911301ADCF8EED92E00E94D909FC
:1022B000019709F014C18EED92E00E941A0A813351
:1022C00021F481E0809313016CC01092130169C066
:1022D0006091140196CF8EED92E00E94D90901978A
:1022E00009F0FDC08EED92E00E941A0A813311F4CC
:1022F00081E001C080E00E941610EEC06091F701FD
:102300008EED92E00E94B8096091F8019DCF609136
:10231000F9018EED92E00E94B8096091FA018EED0C
:1023200092E00E94B8091092F9011092FA010E94FD
:10233000310F6093FC017093FD018093FE01909337
:10234000FF0181E08093000202C11092F901109216
:10235000FA01C2C06091FB0180911301811162609A
:102360008091140181116460809115018111686070
:102370008091170181116061809118014CC090918A
:10238000180181E0892780931801A6C062E25CCF22
:102390000E94E905A1C09091350181E089278093D1
:1023A00035010E94FF0F98C09091360181E0892786
:1023B00080933601F6CF9091370181E08927809391
:1023C0003701EFCF9091380181E089278093380160
:1023D000E8CF9091330181E0892780933301E1CFE9
:1023E0009091340181E0892780933401DACF6091A4
:1023F0003301809134018111626080913501811136
:10240000646080913601811168608091370181118B
:10241000606180913801882309F416CF606214CF7F
:102420008BE10E94000EDF91CF911F910F910C94D0
:10243000DB0F8CE1F6CF82E1F4CF83E1F2CF88E1CC
:10244000F0CF9091170181E0892780931701A9CFE0
:10245000C3E0D1E01C2F115F699170E080E090E053
:102460004AE00E94F0121C13F7CF36C068EC70E00F
:1024700080E090E00E942B0E1092DB021092DA02B4
:10248000C1E08EED92E00E94D90918161906A4F455
:102490008EED92E00E941A0A813219F4C093DA029A
:1024A000F0CF9091DB02E92FF0E0E656FD4F8083FC
:1024B0009F5F9093DB02E5CF8091DA02882339F0A9
:1024C000D091DB02D0FF17C083E991E00EC080E914
:1024D00091E00BC00E94DE048DE891E006C0DF9120
:1024E000CF911F910F910C943113DF91CF911F91D8
:1024F0000F910C94C41260E088E00E94940D0AE9E8
:1025000012E0C0E0CD17B9F0C0FF11C0F801808122
:10251000319790819A33A4F490539295907F8A33A7
:102520008CF48053890FC13079F40E94BD04CF5FD1
:102530000F5F1F4FE7CF61E088E00E94940DCCCF82
:102540009753EBCF8753EECF0E949C04F0CFDF91DF
:10255000CF911F910F910895BC01009791F0FC015C
:1025600001900020E9F73197AF01481B590BE0912A
:10257000DE02F091DF020280F381E02D8EED92E029
:10258000099480E090E008950C94AC12FC018091D5
:10259000DD02811103C08FEF9FEF08959FB7F8947C
:1025A00082E08093E9002091F20030E012161306D9
:1025B00014F421E030E02115310559F0289884E623
:1025C0008093DC028091F10080838091F200882367
:1025D00019F09FBFC90108958BE68093E800F9CFF9
:1025E0008F929F92AF92BF920F931F93CF93DF93DF
:1025F000CDB7DEB7A1970FB6F894DEBF0FBECDBF43
:1026000019A2423008F44AE08E010F5D1F4F842E5C
:10261000912CA12CB12CA50194010E94431CE62F02
:10262000B901CA0101501109EA3014F4E05D01C09A
:10263000E95CD801EC93232B242B252B61F7C801EF
:102640000E94AC12A1960FB6F894DEBF0FBECDBFAC
:10265000DF91CF911F910F91BF90AF909F908F907E
:102660000895E091DE02F091DF020190F081E02D0B
:102670006FE38EED92E00994789484B5826084BD16
:1026800084B5816084BD85B5826085BD85B5816076
:1026900085BD80916E00816080936E0010928100F4
:1026A00080918100826080938100809181008160AF
:1026B0008093810080918000816080938000809170
:1026C000910082608093910080919100816080935D
:1026D0009100809190008160809390008091C10072
:1026E00084608093C1008091C10082608093C100AA
:1026F0008091C10081608093C1008091C30081609E
:102700008093C3008091C00082608093C00080915C
:10271000C20081608093C20080917A0084608093BF
:102720007A0080917A00826080937A0080917A00AA
:10273000816080937A0080917A00806880937A002B
:102740001092DD0210929801109297018091D700AB
:1027500081608093D70080EA8093D80089B580613A
:1027600089BD89B5826089BD09B400FEFDCF61E0F5
:1027700070E080E090E00E942B0E8091D8008F7C6A
:1027800080618093D8008091E000807F8093E0009A
:102790008091E1008E7E8093E1008DE08093E200E5
:1027A000559A209AEEEFFFE7859194918B3F9C4DCF
:1027B00019F481E08093960168EE73E080E090E088
:1027C0000E942B0E8FEF9FEF9093EB028093EA0213
:1027D00061E085E00E94C40DC4E061E085E00E94F4
:1027E000940D62E370E080E090E00E942B0E60E0C8
:1027F00085E00E94940D62E370E080E090E00E942A
:102800002B0EC15051F761E08BE00E94C40D0E9475
:10281000DE0460E087E00E94C40D60E08BE10E946E
:10282000C40D60E08CE10E94C40D60E082E10E9472
:10283000C40D60E083E10E94C40D60E084E10E9469
:10284000C40D60E088E10E94C40D0CE411E0A3E037
:10285000B1E0F8018FE0800F91919D938E13FCCF32
:10286000C0E0D0E0FF24F394D801ED908D012196D3
:10287000CE010E94FB1BE812F12CCF30D105A1F74D
:1028800080E090E00E94FB1B853011F4F11002C043
:102890000E94FF0F0E94E80F10921501109218017C
:1028A000C1E0C0931401809112010E942510809113
:1028B0001301882319F0C093130102C01092130171
:1028C0000E94FF0F81E090911401911101C080E0FE
:1028D0000E94161080911501882321F081E08093D9
:1028E000150102C0109215010E94FF0F10929A016B
:1028F000109299011092C3011092E4011092C1014B
:10290000C1E0C093C00110929B0161E082E00E948F
:10291000940D61E083E00E94940D8091B9008E7F58
:102920008093B9008091B9008D7F8093B90088E4CD
:102930008093B80085E48093BC00C093C20184E218
:10294000809301021092C3011092E40160E088E5D7
:1029500093E00E9479028091E401813208F045C041
:102960009091C1019111FCCF92E09093C10191E04F
:102970009093C0019FEF9093BF011092BE0180938E
:10298000BD01A4ECB1E02DE931E0F9019E2F921BCD
:10299000981718F49D919193F9CF10929C01809112
:1029A0009C01886480939C0180919B01813061F43B
:1029B00010929B0180919C018093BB008091BC0090
:1029C00083FDF8CF85EC01C085EE8093BC0080913B
:1029D000C1018230E1F38091BF018F3F31F08091DE
:1029E000BF01803211F08091BF011092C30110929B
:1029F000E4011092C2010E94D2078091ED01882368
:102A000041F060ED77E080E090E00E942B0E0E94A4
:102A1000E9058FE0E9E4F3E0DF011D928A95E9F72B
:102A2000E0914703F09148030190F081E02D4FE0E1
:102A300050E069E473E087E493E0099523ECC22E4B
:102A4000D12C34ED832E33E0932EA12CB12C90E0C9
:102A5000292E90E0392E0E94D6100E94310F00914D
:102A60001202109113022091140230911502DC0120
:102A7000CB01801B910BA20BB30B4197A105B105B4
:102A800008F41FC561E085E00E94940D0E94D20702
:102A90008091000281114BC480915703807F809305
:102AA000570390911801992309F45DC02091E50125
:102AB0008091490390914A03A0914B03B0914C033C
:102AC000222311F0906401C09F7B8093490390936F
:102AD0004A03A0934B03B0934C032091E6018091ED
:102AE000490390914A03A0914B03B0914C032223D8
:102AF00011F0906801C09F778093490390934A0337
:102B0000A0934B03B0934C032091E70180914903BC
:102B100090914A03A0914B03B0914C03222311F0F2
:102B2000A16001C0AE7F8093490390934A03A093B4
:102B30004B03B0934C032091E8018091490390919D
:102B40004A03A0914B03B0914C03222311F0A260E1
:102B500001C0AD7F8093490390934A03A0934B0338
:102B6000B0934C033DC09091E6019923A1F085609C
:102B7000809357039091E701992321F0807F86602D
:102B8000809357038091E801882351F18091570386
:102B9000807F846023C09091E5019923A1F081603A
:102BA000809357039091E701992321F0807F8860FB
:102BB000809357038091E801882391F08091570317
:102BC000807F82600BC09091E701992311F08760AC
:102BD00005C09091E801992319F083608093570311
:102BE0002091E9018091490390914A03A0914B0300
:102BF000B0914C03222311F0816001C08E7F80933D
:102C0000490390934A03A0934B03B0934C03209144
:102C1000EA018091490390914A03A0914B03B0913E
:102C20004C03222311F0826001C08D7F8093490301
:102C300090934A03A0934B03B0934C032091EB0174
:102C40008091490390914A03A0914B03B0914C03AA
:102C5000222311F0846001C08B7F809349039093FD
:102C60004A03A0934B03B0934C032091EC01809155
:102C7000490390914A03A0914B03B0914C03222346
:102C800011F0886001C0877F8093490390934A03C5
:102C9000A0934B03B0934C032091ED018091490325
:102CA00090914A03A0914B03B0914C03222311F061
:102CB000806101C08F7E8093490390934A03A09363
:102CC0004B03B0934C032091EE0180914903909106
:102CD0004A03A0914B03B0914C03222311F0806270
:102CE00001C08F7D8093490390934A03A0934B03C7
:102CF000B0934C032091EF018091490390914A03D6
:102D0000A0914B03B0914C03222311F0806401C0C9
:102D10008F7B8093490390934A03A0934B03B09316
:102D20004C032091F0018091490390914A03A091B6
:102D30004B03B0914C03222311F0806801C08F77C0
:102D40008093490390934A03A0934B03B0934C03A1
:102D50002091F1018091490390914A03A0914B0386
:102D6000B0914C03222311F0916001C09E7F8093AB
:102D7000490390934A03A0934B03B0934C032091D3
:102D8000F2018091490390914A03A0914B03B091C5
:102D90004C03222311F0926001C09D7F8093490370
:102DA00090934A03A0934B03B0934C032091F301FB
:102DB0008091490390914A03A0914B03B0914C0339
:102DC000222311F0946001C09B7F8093490390936C
:102DD0004A03A0934B03B0934C032091F4018091DC
:102DE000490390914A03A0914B03B0914C032223D5
:102DF00011F0986001C0977F8093490390934A0334
:102E0000A0934B03B0934C0380913301882309F4C2
:102E100033C18BE10E94000EEC018CE10E94000E98
:102E20002091190130911A01FE01E21BF30B9F0161
:102E300040911B0150911C018C01041B150BE0906B
:102E40003101F0903201EE16FF061CF42E193F09F5
:102E50000CC0882799278E199F09E817F9071CF4D9
:102E60002E0D3F1D02C020E030E0809135014090E2
:102E70001D0150901E01A901330F660B770BE091E5
:102E80002101F0912201882381F124E6420E511C98
:102E9000052C000C660877089A01AB012419350946
:102EA00046095709A4EBB0E00E943E1C9F0124563E
:102EB0003109032E000C440B550B24193509460922
:102EC00057090E94111C243B31058FEF4807580712
:102ED000D4F11216130614061506C4F1DA01C9015D
:102EE0008A559048AF4FBF4F2CC094E6490E511CF5
:102EF000052C000C660877089A01AB0124193509E6
:102F000046095709ACE4BFEF0E94301C9F012456CC
:102F10003109032E000C440B550B241935094609C1
:102F200057090E94111C57FD0EC02D34AFEF3A0710
:102F3000410551055CF4DA01C901865A9F47A10990
:102F4000B109EC0105C0CAE5D0E802C0C6EADFE776
:102F5000E016F10624F498012E193F090DC08827C8
:102F600099278E199F090817190724F498012E0D27
:102F70003F1D02C020E030E08091360140901F01EB
:102F800050902001A901330F660B770BE0912301CC
:102F9000F0912401882391F1B4E64B0E511C052CCD
:102FA000000C660877089A01AB0124193509460917
:102FB0005709A4EBB0E00E943E1C9F012456310942
:102FC0008901330F220B330BA9019801241935090C
:102FD000460957090E94111C243B3105EFEF4E07AB
:102FE0005E07E4F11216130614061506D4F1DA0191
:102FF000C9018A559048AF4FBF4F2EC024E6420EFC
:10300000511C052C000C660877089A01AB012419A5
:10301000350946095709ACE4BFEF0E94301C9F01F7
:10302000245631098901330F220B330BA901980172
:1030300024193509460957090E94111C57FD0EC075
:103040002D348FEF3807410551055CF4DA01C901D1
:10305000865A9F47A109B1099C0105C02AE530E8BD
:1030600002C026EA3FE7D0934E03C0934D0330934E
:10307000500320934F0308C010924E0310924D034B
:103080001092500310924F0380913401882309F469
:1030900033C182E10E94000EEC0183E10E94000E28
:1030A0002091250130912601DE01A21BB30B9D0169
:1030B00040912701509128018C01041B150BE090D1
:1030C0003101F0903201EA16FB061CF42E193F097B
:1030D0000CC0882799278E199F09A817B9071CF4D7
:1030E0002E0D3F1D02C020E030E08091370140905E
:1030F000290150902A01A901330F660B770BE0914B
:103100002D01F0912E01882381F1B4E64B0E511C64
:10311000052C000C660877089A01AB0124193509C3
:1031200046095709A4EBB0E00E943E1C9F012456BB
:103130003109032E000C440B550B2419350946099F
:1031400057090E94111C243B3105EFEF4E075E0723
:10315000D4F11216130614061506C4F1DA01C901DA
:103160008A559048AF4FBF4F2CC024E6420E511CE9
:10317000052C000C660877089A01AB012419350963
:1031800046095709ACE4BFEF0E94301C9F0124564A
:103190003109032E000C440B550B2419350946093F
:1031A00057090E94111C57FD0EC02D348FEF3807B0
:1031B000410551055CF4DA01C901865A9F47A1090E
:1031C000B109EC0105C0CAE5D0E802C0C6EADFE7F4
:1031D000E016F10624F498012E193F090DC0882746
:1031E00099278E199F090817190724F498012E0DA5
:1031F0003F1D02C020E030E08091380140902B015B
:1032000050902C01A901330F660B770BE0912F0131
:10321000F0913001882391F194E6490E511C052C60
:10322000000C660877089A01AB0124193509460994
:103230005709A4EBB0E00E943E1C9F0124563109BF
:103240008901330F220B330BA90198012419350989
:10325000460957090E94111C243B3105AFEF4A076C
:103260005A07E4F11216130614061506D4F1DA0112
:10327000C9018A559048AF4FBF4F2EC0B4E64B0EE0
:10328000511C052C000C660877089A01AB01241923
:10329000350946095709ACE4BFEF0E94301C9F0175
:1032A000245631098901330F220B330BA9019801F0
:1032B00024193509460957090E94111C57FD0EC0F3
:1032C0002D34EFEF3E07410551055CF4DA01C901E9
:1032D000865A9F47A109B1099C0105C02AE530E83B
:1032E00002C026EA3FE7D0935203C09351033093C4
:1032F00054032093530308C01092520310925103B9
:1033000010925403109253038091FB01811126C047
:10331000E0914703F09148030190F081E02D4FE0E8
:1033200050E069E473E087E493E0099517C00E94D8
:10333000310F0091FC011091FD012091FE013091AF
:10334000FF01DC01CB01801B910BA20BB30B893E6B
:103350009340A105B10510F0109200028091FB018D
:1033600081110FC060E085E00E94940D0E94310F32
:1033700060931202709313028093140290931502CB
:10338000A0C08091E5018823A1F0809116018536C7
:1033900040F4803630F4853010F48F5F03C08B5FCB
:1033A00001C084E6853608F084E6809316010E9409
:1033B000FF0F8091E601882399F0809116018536F0
:1033C00018F4863020F001C084E6855002C08111D7
:1033D0008150853608F084E6809316010E94FF0F25
:1033E0008091E801882361F080911201282F30E05C
:1033F0002B35310514F4865F01C084E60E94251048
:103400008091E701882349F0809112018A3010F001
:103410008A5001C080E00E9425108091E901882334
:1034200029F081E0809313010E94FF0F8091EA014F
:10343000882321F0109213010E94FF0F8091EC016C
:10344000882319F081E00E9416108091EB018823F7
:1034500019F080E00E9416108091ED01882329F078
:1034600081E0809315010E94FF0F8091EE01882377
:1034700021F0109215010E94FF0F8091F101882325
:1034800019F081E0809318018091EF018111109271
:1034900018010E94310F2B013C010E94D6100E949E
:1034A000310FDC01CB0184199509A609B709893CC4
:1034B0009105A105B10508F055CFC6010197F1F7B7
:1034C000ECCF0E94310F00910E0210910F0220915B
:1034D000100230911102DC01CB01801B910BA20B79
:1034E000B30B893C9105A105B10578F1E7EEF1E058
:1034F0008491E8ECF1E0C491E9EAF1E0D491DD23B4
:1035000079F081110E94570DED2FF0E0EE0FFF1FB3
:10351000EC56FE4FA591B4918C91C82309F0CEC012
:1035200081E08093FB018091FB01882321F01092C0
:10353000F9011092FA010E94310F60930E0270930C
:103540000F0280931002909311020E94310F00919C
:103550000A0210910B0220910C0230910D02DC0145
:10356000CB01801B910BA20BB30B853F9140A105B2
:10357000B10508F49CC084E10E94000EEC0184E1D6
:103580000E94000EC80FD91F84E10E94000E8C0F0C
:103590009D1F63E070E00E94741C7093F6016093BD
:1035A000F501809117018823A9F188E10E94000E9E
:1035B000449754F088E10E94000E893E93403CF409
:1035C00088E10E94000E05C084E190E002C088EE10
:1035D00093E0A0E0B0E09C01AD0124513109410924
:1035E0005109A4E6B0E00E94301CA50194010E949C
:1035F000111CC901409100015091010184179507E8
:1036000049F0253608F024E6209316019093010135
:10361000809300019091F7012091080280910302AC
:1036200029134FC09091F80120910902291349C034
:10363000811114C04091040250910502609106026C
:10364000709107024F5F5F4F6F4F7F4F40930402AF
:1036500050930502609306027093070240910402A2
:10366000509105026091060270910702413B54405F
:1036700061057105B8F1811110C081E080930302EA
:10368000809112018093020280E00E9425108091B7
:103690000202809312010E94FF0F0E94310F60937B
:1036A0000A0270930B0280930C0290930D02211476
:1036B000310409F4D0C90E940000C9C91092FB016D
:1036C00032CF9091F701909308029091F801909376
:1036D0000902109204021092050210920602109242
:1036E0000702BCCF8823C9F2109203028091020224
:1036F0000E942510D2CF1092E1021092E00288EED3
:1037000093E0A0E0B0E08093E2029093E302A09304
:10371000E402B093E5028BE691E09093DF028093A0
:10372000DE028FEF9FEF9093EB028093EA028BE72C
:1037300091E0909348038093470380916A0381113D
:1037400013C010926503109264038CE992E0909389
:1037500067038093660380E590E09093690380930C
:10376000680381E080936A0380913F03811107C061
:103770008EE293E00E94870F81E080933F03E09107
:103780003903F0913A03309739F484E693E090934B
:103790003A03809339030AC080819181009711F028
:1037A000FC01FACF84E693E0918380832091680343
:1037B0003091690380913B0390913C03820F931FEA
:1037C00090933C0380933B0310925B0310925A0347
:1037D00088EE93E0A0E0B0E080935C0390935D03FB
:1037E000A0935E03B0935F0381E891E09093590347
:1037F000809358030895F999FECF92BD81BDF89A40
:10380000992780B50895262FF999FECF1FBA92BD4A
:1038100081BD20BD0FB6F894FA9AF99A0FBE0196B1
:103820000895052E97FB1EF400940E94281C57FD56
:1038300007D00E94431C07FC03D04EF40C94281CB4
:1038400050954095309521953F4F4F4F5F4F0895CC
:1038500090958095709561957F4F8F4F9F4F0895FC
:103860000E94651CA59F900DB49F900DA49F800D94
:10387000911D11240895B7FF0C94301C0E94301C38
:10388000821B930B0895A1E21A2EAA1BBB1BFD01FC
:103890000DC0AA1FBB1FEE1FFF1FA217B307E4072F
:1038A000F50720F0A21BB30BE40BF50B661F771F87
:1038B000881F991F1A9469F7609570958095909567
:1038C0009B01AC01BD01CF010895A29FB001B39F40
:1038D000C001A39F700D811D1124911DB29F700D19
:1038E000811D1124911D089597FB072E16F4009455
:1038F00007D077FD09D00E948E1C07FC05D03EF44E
:10390000909581959F4F0895709561957F4F08958B
:10391000EE0FFF1F0590F491E02D0994AA1BBB1B2D
:1039200051E107C0AA1FBB1FA617B70710F0A61BBF
:10393000B70B881F991F5A95A9F780959095BC01E0
:10394000CD01089581E090E0F8940C94A71CF894C0
:02395000FFCFA7
:1039520065000500000000000000000000000000FB
:10396200000064010100320000FF01FF01D300D317
:10397200002B032B03FF01FF01D300D3002B032BEA
:1039820003320000000100010000C180810000003C
:10399200FFFFFFFF00E10000000000004D617939E8
:1039A200203230313831313536313700000000A154
:1039B20001E802A802C80100000000B8091B0FD9E3
:1039C200091A0A380ACE090000000030030000007C
:1039D200007902490241022D021E021D024F4B00D4
:0639E200463100463200F0
:2070000055C000006EC000006CC000006AC0000068C0000066C0000064C0000062C0000043
:2070200060C000005EC00000F2C400005AC0000058C0000056C0000054C0000052C00000EE
:2070400050C0000078C000004CC000004AC0000048C0000046C0000044C0000042C00000BE
:2070600040C000003EC000003CC000003AC0000038C0000036C0000034C0000032C0000048
:2070800030C000002EC000002CC000002AC0000028C0000026C0000024C0000022C00000A8
:2070A00020C000001EC000001CC0000011241FBECFEFDAE0DEBFCDBF11E0A0E0B1E0E2E3BC
:2070C000FFE702C005900D92A83AB107D9F711E0A8EAB1E001C01D92AE3BB107E1F78FD30B
:2070E00026C78ECFF89410926F0010928100109285001092840081E085BF15BE47985D9AEB
:20710000289A0C94000008952091B2013091B3012F5F3F4F3093B3012093B201932F37FFA6
:2071200003C08EEF831B982F990F921710F447980895479A08951F920F920FB60F9211246E
:207140002F938F939F93EF93FF9310928500109284008091A8019091A901009741F00197D3
:207160009093A9018093A801892B09F45D9A8091AA019091AB01009741F001979093AB0126
:207180008093AA01892B09F4289AE0E0F0E0859194918F5F9F4F49F08091AC019091AD0151
:2071A00001969093AD018093AC01FF91EF919F918F912F910F900FBE0F901F90189584E0BC
:2071C0008093E9000DC08091E8008B778093E80003C08EB3882351F08091E80082FFF9CFBE
:2071E0008091E80085FFEFCF8091F1000895982F83E08093E9008091E80085FD0DC0809136
:20720000E8008E778093E80003C08EB3882369F08091E80080FFF9CF9093F1005D9884E6CB
:2072200090E09093A9018093A80108954F925F926F927F928F929F92AF92BF92CF92DF921E
:20724000EF92FF920F931F93CF93DF9384E08093E9008091E80082FF57C2289884E690E067
:207260009093AB018093AA01AADF182F853481F48CE49DE19093AD018093AC0107B600FC4B
:20728000FDCFF999FECF81E180935700E89503C0843519F494DF8DE00DC28C34E1F38035F9
:2072A000D1F3843721F484E4A2DF80E003C2813611F489E5FFC18134B1F481DF182F7FDFE3
:2072C00090E0880F991FAA2797FDA095BA2F312F330F20E0442737FD4095542F822B932B68
:2072E000A42BB52BB8C1803711F483E5E3C1833549F4C0E0D1E089917ADF21E0C730D20714
:20730000D1F7D9C1863521F481E371DF80E3D2C1833731F487E86BDF85E969DF8EE1CAC149
:207320008536B9F4E0E0F0E093E085E090935700E89507B600FCFDCF80935700E89507B65D
:2073400000FCFDCFE058FF4FA0E7E030FA0771F7A2CF823739F4E1E0F0E089E08093570024
:207360008491A8C1863439F4E0E0F0E089E08093570084919FC18E3439F4E3E0F0E089E0E5
:2073800080935700849196C1813539F4E2E0F0E089E08093570084918DC1823631F489E521
:2073A00026DF80E024DF80E885C1823419F0873609F0E5C01092AD011092AC0100DF082FE8
:2073C000FEDEF82EFCDE682E8554823008F071C1902F80E0CF2DD0E0C82BD92B10926F00B3
:2073E000173609F04BC081E180935700E895DD24CC24C3943FC0E090AE01F090AF010091CC
:20740000B0011091B101B6E46B16D9F4ED2DF0E0EE29FF29E4918E2FEADEDD2081F082E08D
:2074200090E0A0E0B0E0E80EF91E0A1F1B1FE092AE01F092AF010093B0011093B101DC2470
:2074400018C0D801C701B695A7959795879559D5CEDE82E090E0A0E0B0E0E80EF91E0A1FF2
:207460001B1FE092AE01F092AF010093B0011093B1012197209709F0BECF7DC08090AE01F5
:207480009090AF01A090B001B090B10196E4691609F05DC083E0F40180935700E89507B63E
:2074A00000FCFDCF54C0F6E46F1661F5772031F1E090AE01F090AF010091B0011091B1019E
:2074C0007EDED82ECC24852D90E08C299D29F7010C0140925700E895112482E090E0A0E08B
:2074E000B0E0E80EF91E0A1F1B1FE092AE01F092AF010093B0011093B10102C060DE582E1A
:20750000742423C0E090AE01F090AF010091B0011091B10116950795F794E79450DE682FFA
:20752000C701F7D48091AE019091AF01A091B001B091B1010296A11DB11D8093AE01909349
:20754000AF01A093B001B093B101219704C05524772444244394209709F0A5CF96E46916B6
:2075600041F485E0F40180935700E89507B600FCFDCF8DE03CDE82E080936F009CC0833492
:2075800071F40091AE011091AF0119DE90E021E0F8010C0120935700E89511247CCE8336C8
:2075A00019F5E090AE01F090AF010091B0011091B10105DEF701E16090E021E00C0120938C
:2075C0005700E895112482E090E0A0E0B0E0E80EF91E0A1F1B1FE092AE01F092AF0100936A
:2075E000B0011093B10157CE8D3661F4E091AE01F091AF0185E080935700E89507B600FCF2
:20760000FDCF49CE823551F4E091AE01F091AF0105911491812FEBDD802F4CC0843421F5FE
:20762000E090AE01F090AF010091B0011091B10116950795F794E794C2DD682FC70169D4DE
:207640008091AE019091AF01A091B001B091B1010296A11DB11D8093AE019093AF01A093D8
:20766000B001B093B10117CE843609F5E090AE01F090AF010091B0011091B101D801C70142
:20768000B695A795979587953CD4B1DD82E090E0A0E0B0E0E80EF91E0A1F1B1FE092AE010A
:2076A000F092AF010093B0011093B10104C08B3111F08FE39CDD83E08093E9009091E8002B
:2076C0008091E8008E778093E80095FF04C010C08EB38823C9F08091E80080FFF9CF809193
:2076E000E8008E778093E80003C08EB3882361F08091E80080FFF9CF84E08093E9008091F1
:20770000E8008B778093E800DF91CF911F910F91FF90EF90DF90CF90BF90AF909F908F90AC
:207720007F906F905F904F9008959091B601892F8F77813249F58091B7018032A1F081328A
:2077400019F5913A09F58091E800877F8093E8008DE091E067E070E00BD28091E8008B770B
:207760008093E8000895913279F48091E800877F8093E8008DE091E067E070E05DD2809192
:20778000E8008E778093E800089582E061EC42E0B5D083E061E842E1B1D084E060E842E1EF
:2077A000ADC084B7877F84BF88E10FB6F89480936000109260000FBE20E880E090E00FB63F
:2077C000F89420936100809361000FBE81E085BF92E095BF3F9A209A559AE1E6F0E02083A1
:2077E000108247985D9A289A109289008AEF8093880090936F0083E080938100F0C0409116
:20780000000850910108109201081092000894B714BE88E10FB6F8948093600010926000D5
:207820000FBE292F30E0F901E270F07091FD18C090FF05C0859194918F5F9F4F81F423FFFF
:207840000FC08091090190910A014817590741F0E0E0F0E0859194918F5F9F4F09F042DC64
:20786000A0DF78941092AD011092AC010CC0DEDC36D38091AC019091AD0181549F4110F00D
:207880001092140141DC80911401882381F78091E00081608093E00025DC80E090E0089598
:2078A000FA01923049F0933061F09130F9F485E191E022E130E01EC087E291E02EE330E04D
:2078C00019C0882329F485E691E024E030E012C0813029F489E691E022E230E00BC0823006
:2078E00029F48DE891E028E130E004C080E090E020E030E091838083C90108958093E9004E
:207900008091EB0081608093EB001092ED006093EC004093ED008091EE00881F8827881F62
:2079200008958091B60188238CF403C08EB38823B1F08091E80082FFF9CF8091E8008B772A
:207940008093E80008958EB3882349F08091E80080FFF9CF8091E8008E778093E800089594
:20796000EF92FF920F931F9345D04CD008ED10E0F80180818F77808380818068808380819B
:207980008F7D808319BC1EBA1092B40180EEE82EF12CF70180818B7F8083F8018081816052
:2079A000808380E060E042E0A9DFE1EEF0E080818E7F8083E2EEF0E0808181608083808144
:2079C00088608083F70180818E7F8083F8018081806180831F910F91FF90EF900895E7ED06
:2079E000F0E08081816080838AE482BF81E08093B501B6CFE8EDF0E080818E7F808310921C
:207A0000E20008951092DA001092E10008951F920F920FB60F9211242F933F934F935F93F6
:207A20006F937F938F939F93AF93BF93EF93FF938091DA0080FF1BC08091D80080FF17C0B2
:207A40008091DA008E7F8093DA008091D90080FF0BC080E189BD82E189BD09B400FEFDCF36
:207A600081E08EBB3BD203C019BC1EBA37D28091E10080FF17C08091E20080FF13C0809138
:207A8000E2008E7F8093E2008091E20080618093E2008091D80080628093D80019BC85E049
:207AA0008EBB1CD28091E10084FF2CC08091E20084FF28C080E189BD82E189BD09B400FEC5
:207AC000FDCF8091D8008F7D8093D8008091E1008F7E8093E1008091E2008F7E8093E20012
:207AE0008091E20081608093E2008091B401882331F48091E30087FD02C081E001C084E067
:207B00008EBBECD18091E10083FF21C08091E20083FF1DC08091E100877F8093E10082E06A
:207B20008EBB1092B4018091E1008E7F8093E1008091E2008E7F8093E2008091E2008061E9
:207B40008093E20080E060E042E0D8DEC7D1FF91EF91BF91AF919F918F917F916F915F9130
:207B60004F913F912F910F900FBE0F901F9018959C014091BC015091BD014617570718F49D
:207B8000F90190E044C06115710511F0AB01F8CF8091E8008E778093E80040E050E0F0CF0F
:207BA0008EB3882309F444C0853009F443C08091E80083FF02C081E008958091E80082FD70
:207BC00031C08091E80080FF22C08091F3009091F200782F60E0292F30E0262B372B07C07A
:207BE00081918093F100415050402F5F3F4F4115510519F02830310598F390E02830310566
:207C000009F491E08091E8008E778093E8004115510531F6992321F605C08EB3882341F075
:207C2000853041F08091E80082FFF7CF80E0089582E0089583E008959C016115710529F47C
:207C40008091E8008B778093E800F90126C08EB3882391F1853091F18091E80083FF02C06C
:207C600081E008958091E80082FFF1CF06C08091F10081936150704059F02091F300809191
:207C8000F200322F20E090E0822B932B892B79F78091E8008B778093E80061157105B9F601
:207CA00005C08EB3882341F0853041F08091E80080FFF7CF80E0089582E0089583E00895C2
:207CC0000F931F93DF93CF9300D0CDB7DEB7E6EBF1E08091F100819381E0EE3BF807C9F792
:207CE00024DD8091E80083FFE4C08091B6019091B701953009F46DC0963040F4913081F1A7
:207D0000913070F0933009F0D4C02AC0983009F4A3C0993009F4B2C0963009F0CAC07CC023
:207D2000803809F4C6C0823809F0C3C08091BA0187708093E9008091EB001092E9002091DB
:207D4000E800277F2093E80090E025E0969587952A95E1F781708093F1001092F10087C0D8
:207D6000882319F0823009F0A4C08F71823009F0A0C08091B801882331F52091BA01277097
:207D800009F497C02093E9008091EB0080FF1BC0933021F48091EB00806213C08091EB0018
:207DA00080618093EB0081E090E002C0880F991F2A95E2F78093EA001092EA008091EB00E5
:207DC00088608093EB001092E9008091E800877F51C0882309F06DC01091B8011F770FB79B
:207DE000F8948091E800877F8093E8009ADD8091E80080FFFCCF8091E3008078812B809398
:207E0000E30080688093E300112311F482E001C083E08EBB0FBF4DC08058823008F049C033
:207E20008091B8019091B9016091BA01AE014F5F5F4F36DDBC01009709F43BC08091E8008E
:207E4000877F8093E80089819A8192DE8091E8008B778093E8002DC0803859F58091E800AA
:207E6000877F8093E8008091B4018093F1008091E8008E778093E80054DD1BC08823C9F4CA
:207E80009091B8019230A8F48091E800877F8093E8009093B40145DD8091B401882331F420
:207EA0008091E30087FD02C081E001C084E08EBB6CDC8091E80083FF0AC08091EB0080624E
:207EC0008093EB008091E800877F8093E8000F900F90CF91DF911F910F91089508951F9360
:207EE0008EB3882361F01091E9001092E9008091E80083FF01C0E4DE17701093E9001F916F
:207F00000895F999FECF92BD81BDF89A992780B50895262FF999FECF1FBA92BD81BD20BDBD
:207F20000FB6F894FA9AF99A0FBE01960895F894FFCF4341544552494E4100777700080031
:207F40000000000000080112011001020000084123360001000201000109023E00020100FF
:207F600080320904000001020201000524001001042402040524060001070582030800FF0C
:207F800009040100020A000000070504021000010705830210000104030904220341007216
:207FA000006400750069006E006F0020004C0065006F006E006100720064006F0000001836
:1A7FC00003410072006400750069006E006F0020004C004C004300000000D7
:00000001FF
