:100000000C9477010C949F010C949F010C949F0118
:100010000C949F010C949F010C949F010C949F01E0
:100020000C949F010C949F010C94000A0C94AB0B50
:100030000C949F010C949F010C949F010C949F01C0
:100040000C949F010C949F010C949F010C949F01B0
:100050000C949F010C949F010C949F010C94DE1052
:100060000C949F010C949F010C949F010C949F0190
:100070000C949F010C949F010C949F010C949F0180
:100080000C949F010C949F010C949F010C949F0170
:100090000C94AE110C949F010C949F010C949F0141
:1000A0000C949F010C949F010C949F017406790697
:1000B0007E0688069206DC06DC06DC069C06A606A2
:1000C000B006BA06C706DC06CF06E907F207A108A4
:1000D000A108A108A108A108A108A108A108A108D8
:1000E000A108A108A108A108A108A108A108A108C8
:1000F000A108A108A108A108A108A10881079D07DE
:100100003F085A082807A108A108A1085307E607D5
:10011000A1086808A108A108A108A1084507A1082D
:10012000A108A108A1080C076A07A108A108A10855
:10013000F907A1080008A108A108A1087E079407F3
:100140001107DD0722072507A108A10816071508D2
:10015000A1089C08E407A108370839083807BB073D
:10016000C0073D082E08A108670742073B084B0857
:100170000708A1080E080C100F10FE0F021008103F
:10018000301030103010131017101B1021102510D4
:1001900030102B1000000000250028002B002E003E
:1001A0003100000000002300260029002C002F0051
:1001B000040404040403040502020202040302020C
:1001C00002020606060606060404020202040404ED
:1001D0000802011040804010204080408008020446
:1001E00001804020100201108010204040200000BB
:1001F000000200090F0000030401000C00000000D1
:1002000000000000000000000000000000080B00DB
:10021000020202010009040000010202000005249C
:100220000010010524010101042402060524060032
:10023000010705810310004009040100020A0000C3
:100240000007050202400000070583024000000489
:1002500003090412010002EF02014041233680002D
:10026000010102030141726475696E6F204C4C43B9
:100270000041726475696E6F204C656F6E617264C7
:100280006F00070605040100080A0B0C0D090000A9
:100290000000240027002A002D0030000501090479
:1002A000A1018506050919012920150025017501FF
:1002B000952081020501A100093009310933093473
:1002C00016008026FF7F75109504810209320935DA
:1002D0001580257F750895028102C005010939093D
:1002E0003915012508950275048102C0F41B1124FB
:1002F0001FBECFEFDAE0DEBFCDBF11E0A0E0B1E07E
:10030000E4E4FAE302C005900D92A839B107D9F7E9
:1003100023E0A8E9B1E001C01D92A437B207E1F7DC
:1003200011E0C7E7D1E004C02197FE010E94011D42
:10033000C637D107C9F70E94D4130C94201D0C9422
:100340000000CF93C92F682F80EE92E00E948109B0
:100350006C2F80EE92E0CF910C94810961E080E1F6
:100360000E94311061E08FE00E94311061E088E06E
:100370000E94311061E086E00E94311060E086E06A
:100380000E94040E6AE070E080E090E00E94981005
:1003900061E086E00E94040E6AE070E080E090E098
:1003A0000E94981089EB0E94FD128FEF0E94DC12D0
:1003B00083E80E94DC1283E60E94DC1281EB0E943B
:1003C000FD1281E80E94DC1280E30E94DC1288E0CA
:1003D0000E94DC1286E30E94DC1281E00E94DC12A3
:1003E00083E10E94DC1280E10E94DC1280E10E9425
:1003F000DC1285E30E94DC128DE30E94DC128AE1AC
:100400000E94DC128AE10E94DC128AE30E94FD1243
:1004100080E60E94DC1286E30E94FD128AE00E94C0
:10042000DC128FEB0E94FD1280E00E94DC1280E162
:100430000E94DC1283EB0E94FD1281E00E94DC121C
:1004400084EB0E94FD1281E00E94DC1282E10E9496
:10045000DC1282E70E94DC1282E10E94DC1286E05C
:100460000E94DC1283E00E94DC1284E50E94DC1210
:1004700083E00E94DC128EE40E94DC1280E00E9485
:10048000DC1280E00E94DC1286EB0E94FD1283E306
:100490000E94DC128CEC0E94FD1282E00E94DC12B1
:1004A00068E770E080E090E00E94981080EE0E9483
:1004B000FD1281E00E94DC1287E00E94DC128CE4D5
:1004C0000E94DC1280EB0E94DC1286E30E94DC12A8
:1004D0008FE30E94DC1286E00E94DC1289E40E9415
:1004E000DC1281E50E94DC1286E90E94DC1288E1C0
:1004F0000E94DC1288ED0E94DC1288E10E94DC126E
:1005000080E50E94DC1283E10E94DC1281E00E94FF
:10051000DC1287E00E94DC128CE40E94DC1280EB8B
:100520000E94DC1286E30E94DC128FE30E94DC1240
:1005300086E00E94DC1289E40E94DC1281E50E94C0
:10054000DC1286E90E94DC1288E10E94DC1288ED50
:100550000E94DC1288E10E94DC1280E50E94DC121D
:1005600083E10E94DC1266E970E080E090E00E9486
:10057000981081E10E94FD1268EC70E080E090E04C
:100580000E94981089E20C94FD12CF92DF92EF92B4
:10059000FF921F93CF93DF93CDB7DEB760970FB66F
:1005A000F894DEBF0FBECDBF8091C3018111FCCF97
:1005B00081E08093C3018093C2019FEF9093C101BA
:1005C0001092C0018093BF0180939E0180919E0193
:1005D000886480939E0180919D01813061F4109226
:1005E0009D0180919E018093BB008091BC0083FDA2
:1005F000F8CF85EC01C085EE8093BC008091C301EB
:100600008130E1F38091C001823018F48091C00103
:1006100001C082E0AFE9B1E02EE632E0F9019E2FA1
:10062000921B981718F49D919193F9CF10929C0109
:1006300080939B0110E090919B0180919C01981701
:1006400029F18AE593E00E94E50E809548E0149F29
:10065000B001112420E030E090E0F901E60FF71F2F
:1006600041E050E04C0F5D1FE40FF51FAC01022E7E
:1006700002C0559547950A94E2F7417040832F5F79
:100680003F4F2830310549F71F5FD5CF88898093C8
:10069000E7018E858093E80189858093E9018F8544
:1006A0008093EA018A818093EB0189818093EC0138
:1006B0008C818093ED018B818093EE018B858093FB
:1006C000EF018A858093F0018D818093F1018E8105
:1006D0008093F2018F818093F30188858093F401E8
:1006E0008D858093F5018C858093F60180E090E004
:1006F000C12CD12C7601C394FC01E951FE4F20811D
:10070000222381F02091F901B701A601082E04C02F
:10071000440F551F661F771F0A94D2F7422B409350
:10072000F90111C03091F901B701A601082E04C0EA
:10073000440F551F661F771F0A94D2F74095242F48
:1007400023232093F901019688309105A9F680E0D2
:1007500090E0C12CD12C7601C394FC01E151FE4FF5
:100760003081332381F03091FA01B701A601082EC0
:1007700004C0440F551F661F771F0A94D2F7432BFE
:100780004093FA0111C03091FA01B701A601082E79
:1007900004C0440F551F661F771F0A94D2F7409577
:1007A000242F23232093FA01019688309105A9F67E
:1007B0008091F9019091FB01892B8093FB0180913D
:1007C000FA019091FC01892B8093FC0160960FB691
:1007D000F894DEBF0FBECDBFDF91CF911F91FF9088
:1007E000EF90DF90CF9008950F931F93CF93DF93F7
:1007F00002E011E0C0E0D0E0CE010E94741CF801DC
:1008000081938F012196C833D105B1F7DF91CF9144
:100810001F910F9108950F931F93CF93DF9302E0E1
:1008200011E0C0E0D0E0F80161918F01CE010E949B
:100830007C1C2196C833D105B1F7DF91CF911F9170
:100840000F9108952F923F924F925F926F927F92F5
:100850008F929F92AF92BF92CF92DF92EF92FF92D0
:100860000F931F93CF93DF93CDB7DEB760970FB68B
:10087000F894DEBF0FBECDBF109234011092350147
:100880001092170188E10E946D108C3F9340A4F4F0
:1008900061E088E10E94311068EC70E080E090E057
:1008A0000E94981060E088E10E94311062E370E0DD
:1008B00080E090E00E94981088E10E946D108B5FAC
:1008C00091098D3E924020F481E08093170102C08F
:1008D000109217018BE10E946D108C3F93403CF405
:1008E0008CE10E946D108C3F93400CF45AC18BE157
:1008F0000E946D104C016C018CE10E946D10988B70
:100900008F873C01883C910530F021E02D8338EC45
:100910008316910408F41D8282E10E946D108C3FC1
:1009200093403CF483E10E946D108C3F93400CF4A3
:1009300055C182E10E946D107C012C0183E10E946F
:100940006D108C011C01883C910530F021E02A8754
:1009500038ECE316F10408F41A860E94D2106B8773
:100960007C878D879E8719870887FF82EE824F8557
:1009700058895C834B839A8289820E94D210DC0161
:10098000CB012B853C854D855E85821B930BA40B8B
:10099000B50B80319742A105B10508F092C061E026
:1009A00085E00E94040E5D815523F1F18BE10E94E8
:1009B0006D105C0161E070E080E090E00E949810B2
:1009C0008CE10E946D1029813A81280D391D37FF75
:1009D00002C02F5F3F4F6901D594C7942B813C81A2
:1009E0004F855889240F351F37FF02C02F5F3F4FB7
:1009F000390175946794A814B90408F445012F854A
:100A000038898217930710F4988B8F8749815A8110
:100A10004A155B0510F4BA82A9822B813C81281704
:100A2000390710F49C838B833A853323C9F182E123
:100A30000E946D105C0161E070E080E090E00E9437
:100A4000981083E10E946D102E813F812E0D3F1D75
:100A500037FF02C02F5F3F4F2901559447942885E7
:100A60003985200F311F37FF02C02F5F3F4F19011B
:100A700035942794AE14BF0408F4750180179107CC
:100A800008F48C014E815F814A155B0510F4BF822A
:100A9000AE82288539852817390710F49987888709
:100AA00068E270E080E090E00E94981060E085E0ED
:100AB0000E94040E68E270E080E090E00E949810CE
:100AC0005CCF29813A812C193D098B819C81861943
:100AD00097098C189D0890921F0180921E014F85E6
:100AE00058894619570950932101409320013093AA
:100AF0002301209322019093250180932401D09219
:100B00001B01C0921A0170921D0160921C014D815F
:100B1000409334012E813F812419350988859985B8
:100B200082199309E418F508F0922B01E0922A014A
:100B30000219130910932D0100932C0130932F01FA
:100B400020932E0190933101809330015092270120
:100B50004092260130922901209228015A85509313
:100B6000350182E390E090933301809332016096E7
:100B70000FB6F894DEBF0FBECDBFDF91CF911F91AE
:100B80000F91FF90EF90DF90CF90BF90AF909F902C
:100B90008F907F906F905F904F903F902F900C942C
:100BA0000B0461E08BE10E94311061E08CE10E9456
:100BB000311068EC70E080E090E00E94981060E0F6
:100BC0008BE10E94311060E08CE10E94311062E301
:100BD00070E080E090E00E94981089CE61E082E1B0
:100BE0000E94311061E083E10E94311068EC70E0F6
:100BF00080E090E00E94981060E082E10E94311055
:100C000060E083E10E94311062E370E080E090E0F8
:100C10000E9498108ECE909116019536D0F48111D5
:100C200008C0963010F095500DC0992359F091509E
:100C300009C0903630F4953010F49F5F03C09B5F7D
:100C400001C094E6953608F094E6909316010C9452
:100C50000B048111F6CF94E6E6CF882329F081E0DA
:100C60008093140160E003C01092140161E08DE0F4
:100C70000E9431100C940B04CF92DF92EF92FF92FE
:100C8000853608F084E680931201A82FB0E025E1B4
:100C90003FEF4FEF5FEF0E94A91C24E630E040E0F9
:100CA00050E00E948A1C69017A018BEEC80ED11CAB
:100CB000E11CF11C61E08BE00E943110C114D104F1
:100CC000E104F10411F460E07FC0E9EFF1E0E491A8
:100CD0008E2F90E0FC013197EF30F10508F06CC0E9
:100CE000EA5AFF4F0C94011D84B5806884BDC7BCCF
:100CF0006EC084B5806284BDC8BC69C0809180002C
:100D0000806880938000D0928900C09288005FC084
:100D100080918000806280938000D0928B00C0928E
:100D20008A0055C080918000886080938000D092B6
:100D30008D00C0928C004BC08091900080688093A1
:100D40009000D0929900C092980041C0809190008C
:100D5000806280939000D0929B00C0929A0037C02E
:100D600080919000886080939000D0929D00C09206
:100D70009C002DC08091C00080688093C00080914D
:100D8000C0008F7B8093C000C092CF0020C08091B4
:100D9000C00080628093C000C092D00018C08091D3
:100DA000C20088608093C2008091C2008B7F8093D4
:100DB000C200C092D2000BC080E8C816D104E10482
:100DC000F1040CF480CF61E08BE00E94040EFF90F0
:100DD000EF90DF90CF900C940B040F931F93CF9361
:100DE000DF9380EE92E00E94A209181619060CF01B
:100DF000E0C180EE92E00E94BE09082E000C990B23
:100E0000AA0BBB0BFC01B897E635F10508F099C1B8
:100E1000EB59FF4F0C94011D6091F7017091F8019F
:100E200008C08091F7019091F8011BC160911501F4
:100E300070E080E090E04AE0DF91CF911F910F9148
:100E40000C9462136091160115C060911601F0CFE9
:100E500080EE92E00E94A209019709F072C180EE33
:100E600092E00E94BE09853608F421C184E61FC1C4
:100E70006091120180EE92E0DF91CF911F910F916E
:100E80000C94810960911201D3CF80EE92E00E9410
:100E9000A209019709F055C180EE92E00E94BE09B7
:100EA0000E943C064BC180EE92E00E94A20901978D
:100EB00009F047C180EE92E00E94BE09813321F41F
:100EC00081E0809315018BC01092150188C060915C
:100ED0001301AECF80EE92E00E94A209019709F0C3
:100EE00030C180EE92E00E94BE09813321F481E09E
:100EF0008093130174C01092130171C060911401AA
:100F000097CF80EE92E00E94A209019709F019C1E3
:100F100080EE92E00E94BE09813311F481E001C0AD
:100F200080E00E942D060AC16091F90180EE92E0F6
:100F30000E9481096091FA019DCF6091FB0180EED2
:100F400092E00E9481096091FC0180EE92E00E9493
:100F500081091092FB011092FC010E94D210609353
:100F6000FE017093FF01809300029093010281E0E3
:100F7000809302021EC11092FB011092FC01DEC0A0
:100F80006091FD01809113018111626080911401D3
:100F90008111646080911501811168608091170151
:100FA0008111606180911901811160628091180145
:100FB000882309F45FCF60645DCF9091190181E0CF
:100FC000892780931901BAC062E254CF0E9422049B
:100FD000B5C09091360181E08927809336010E9447
:100FE0000B04ACC09091370181E0892780933701D1
:100FF000F6CF9091380181E0892780933801EFCFB7
:101000009091390181E0892780933901E8CF90914F
:10101000340181E0892780933401E1CF909135013B
:1010200081E0892780933501DACF60913401809186
:101030003501811162608091360181116460809177
:101040003701811168608091380181116061809160
:101050003901882309F40ECF60620CCF8BE10E9426
:101060006D10DF91CF911F910F910C94A1018CE134
:10107000F6CF82E1F4CF83E1F2CF88E1F0CF909117
:10108000170181E0892780931701882309F4A7CFEE
:1010900010921801A4CF9091180181E089278093C4
:1010A0001801882309F49BCF1092170182E38093E3
:1010B000160195CFC3E0D1E01C2F115F699170E05C
:1010C00080E090E04AE00E9462131C13F7CF36C024
:1010D00068EC70E080E090E00E94981010925C0252
:1010E00010925B02C1E080EE92E00E94A209181605
:1010F0001906A4F480EE92E00E94BE09813219F430
:10110000C0935B02F0CF90915C02E92FF0E0E55EC6
:10111000FD4F80839F5F90935C02E5CF80915B02DF
:10112000882339F0D0915C02D0FF17C084E991E0A8
:101130000EC081E991E00BC00E94AE018EE891E003
:1011400006C0DF91CF911F910F910C94A313DF91F3
:10115000CF911F910F910C94361360E088E00E94AC
:10116000040E0BE112E0C0E0CD17B9F0C0FF11C0D2
:10117000F8018081319790819A33A4F4905392952D
:10118000907F8A338CF48053890FC13079F40E94A8
:10119000FD12CF5F0F5F1F4FE7CF61E088E00E9435
:1011A000040ECCCF9753EBCF8753EECF0E94DC12C7
:1011B000F0CFDF91CF911F910F91089540916B0275
:1011C00050916C022091690230916A0242175307D4
:1011D000B4F49091E8009570E1F39091E80092FDED
:1011E00019C08093F10080916B0290916C0201967E
:1011F0008F739927892B19F48EEF8093E8008091E3
:101200006B0290916C02019690936C0280936B023A
:1012100081E0089580E00895CF92DF92EF92FF92EF
:101220000F931F93CF93DF931F92CDB7DEB7182F85
:10123000062FE42E862F880F8E5F99830E94DE088A
:1012400083E00E94DE08F12EC12E9981D92E8C2DCB
:101250008F19801798F4F601E7FE02C0849101C04F
:1012600080810E94DE08182F80E00E94DE08812322
:10127000FFEFCF1ADF0A8111EACF01C081E00F90A2
:10128000DF91CF911F910F91FF90EF90DF90CF9062
:101290000895615030F02091F100FC012083019607
:1012A000F8CF289884E68093DE020895CF92DF92EB
:1012B000EF92FF920F931F93CF93DF936C017A010C
:1012C0008B01C0E0D0E0CE15DF0589F0D8016D912B
:1012D0008D01D601ED91FC910190F081E02DC601C8
:1012E0000995892B11F47E0102C02196ECCFC7012C
:1012F000DF91CF911F910F91FF90EF90DF90CF90F2
:101300000895CF93DF931F92CDB7DEB76983DC01D9
:10131000ED91FC910280F381E02D41E050E0BE01AF
:101320006F5F7F4F09950F90DF91CF91089583E014
:101330008093E9008091F200882319F08AE380937A
:10134000E8000895FC018485958597FD0BC09FB743
:10135000F89482E08093E9008091F2009FBF90E0D2
:10136000019608959FB7F89482E08093E9008091F8
:10137000F2009FBF90E008950E941B1DCF93DF9362
:101380001F92CDB7DEB7FC018485958597FD05C01A
:101390002FEF3FEF358724870BC0CE0101960E94C7
:1013A0003813019719F4898190E002C08FEF9FEF05
:1013B0000F90DF91CF9108950F931F93CF93DF93F9
:1013C0001F92CDB7DEB78C01FC018485958597FF10
:1013D0000EC0CE0101960E943813019719F429819D
:1013E00030E002C02FEF3FEFF80135872487F80186
:1013F000848595850F90DF91CF911F910F9108956E
:101400001F920F920FB60F9211248F939F9380918A
:10141000E1009091E100937F9093E10083FF0FC082
:101420001092E90091E09093EB001092EC0092E3AF
:101430009093ED001092DF0298E09093F00082FF0D
:1014400020C093E09093E9009091F200992319F065
:101450009AE39093E80090916D02992339F090916E
:101460006D02915090936D02992389F19091DE0263
:10147000992339F09091DE0291509093DE029923E6
:1014800041F184FF10C08091E2008E7E81608093E4
:10149000E2008091E1008F7E8093E10080919901CC
:1014A0008E7E806111C080FF16C08091E2008E7E2A
:1014B00080618093E2008091E1008E7E8093E10064
:1014C000809199018E7E81608093990104C05D9A1C
:1014D000CDCF289AD6CF9F918F910F900FBE0F90AE
:1014E0001F901895DF92EF92FF920F931F93CF9367
:1014F000DF93D82E8A017B01E40EF51EEB01CE1599
:10150000DF0571F0D7FE03C0FE01849101C0888120
:101510000E94DE0821968111F2CF8FEF9FEF01C06C
:10152000C801DF91CF911F910F91FF90EF90DF9055
:1015300008956F927F929F92AF92BF92CF92DF9267
:10154000EF92FF920F931F93CF93DF9300D01F92E0
:10155000CDB7DEB7382F8B018091DF02811103C038
:101560008FEF9FEF8BC08091990180FF05C0809124
:10157000E00082608093E0003A01F12C8AEFE82ECF
:10158000832F8770C82E90E4B92E832F8072A82EE7
:10159000832F8074982E2AE3D22E6114710409F4EB
:1015A00066C08FB7F894C092E9009091E80095FF6B
:1015B00005C09091F2002B2D291B01C020E08FBFA8
:1015C000211110C0EA94EE2059F261E070E080E051
:1015D00090E039834A835B830E94981039814A8165
:1015E0005B81DBCF822F90E0681679060CF4262D04
:1015F0006FB7F894C092E9008091E80085FF35C08C
:10160000822F90E0681A790AAA2029F02150A8F0C8
:101610001092F100FBCFF80137FF07C0215058F0BE
:1016200074917093F1003196F9CF215020F07191AF
:101630007093F100FACF080F191FFF2019F0D09214
:10164000E8000BC08091E80085FD09C0D092E80059
:10165000FF24F3946114710441F0F12C06C061146D
:10166000710419F49110D092E8006FBF96CFF11079
:1016700098CF5D9884E680936D02CA010F900F9019
:101680000F90DF91CF911F910F91FF90EF90DF901E
:10169000CF90BF90AF909F907F906F900895CF9321
:1016A000DF93EC0180914C01882331F083E00E94AC
:1016B000990A1816190634F081E090E09B838A831A
:1016C00080E090E0DF91CF910895809161028111D7
:1016D0000DC082E080935D0284E080935E021092F0
:1016E000600210925F0281E0809361028DE592E0DA
:1016F00008950F931F93CF93DF931F92CDB7DEB75B
:1017000082E0898342E450E06DE072E080E80E946C
:10171000720A0E94650BDC0112960D911C911397C1
:101720000115110569F0D801ED91FC910280F3815A
:10173000E02DBE016F5F7F4FC801099597FF07C07D
:1017400089810F90DF91CF911F910F910895F8013A
:1017500000851185E5CF1F920F920FB60F921124CD
:10176000CF92DF92EF92FF920F931F932F933F93AD
:101770004F935F936F937F938F939F93AF93BF9399
:10178000EF93FF93CF93DF93CDB7DEB76C97DEBFB8
:10179000CDBF1092E9008091E80083FFEDC168E0C1
:1017A000CE0145960E94490982EF8093E8008D8919
:1017B00087FF05C09091E80090FFFCCF03C09EEF2B
:1017C0009093E800982F907609F0C6C09E892F89E3
:1017D000188D91110CC0803829F480919A01809362
:1017E000F10002C01092F1001092F10048C1422FA6
:1017F00050E0512B913051F4811141C141305105DC
:1018000009F03DC180919A018D7F0BC0933061F446
:10181000811135C14130510509F031C180919A01E2
:10182000826080939A012BC1953041F48091E80049
:1018300080FFFCCF20682093E30021C1963009F09F
:101840005FC0EB8CFC8C1092E90010926C0210923D
:101850006B02123091F510926A02109269020E9496
:10186000790B99E0BE016F5F7F4FDB01E92F1D927D
:10187000EA95E9F799831A8391E09E8390EA988725
:101880009AEF998720916B0230916C02275F3F4F4E
:101890003C832B838D831092E90010926C0210928E
:1018A0006B02F0926A02E092690249E050E080E047
:1018B0000E94720A0E94790BE2C0F0926A02E092E2
:1018C00069020E94650BDC011296ED90FC90139763
:1018D000E114F10409F4C0C0D701ED91FC9104803A
:1018E000F581E02DBE016B5E7F4FC7010995009722
:1018F00019F00CF0C4C0C7C0F701E084F184E8CF50
:10190000973009F4C0C0983021F481E08093F10051
:10191000B6C0993009F0B3C0837009F0B4C0EBE3EE
:10192000F1E081E021E036E39081992361F080933A
:10193000E9002093EB0091919093EC003093ED003F
:101940008F5F873089F78EE78093EA001092EA0074
:101950008F898093DF0293C08B8D9C8D1092E9005C
:1019600010926C0210926B0290936A02809369024B
:10197000898D811156C08E899D89913A59F48132A1
:1019800009F081C047E050E065E471E080E00E942A
:10199000720A75C0913209F076C0833289F4888D5D
:1019A00090E0982F88272F89822BA0E0B0E08093C9
:1019B000410190934201A0934301B09344015FC061
:1019C000803269F48091E80082FFFCCF67E085E413
:1019D00091E00E9449098BEF8093E80006C08232B3
:1019E00009F04DC08F8980934C0180919801882324
:1019F00019F0EEEFFAE002C0E0E0F8E08091450176
:101A000090914601A0914701B0914801803B9440DC
:101A1000A105B10509F07BC080914C0180FF93C006
:101A200076C00E94650BDC0112960D911C911397F4
:101A30000115110541F1D801ED91FC910190F08162
:101A4000E02DBE016B5E7F4FC8010995811117C063
:101A5000F80100851185ECCF113009F44EC0133028
:101A600091F48F89882309F445C0823081F440E8DD
:101A700060E181E792E00E940C09882321F08EEF5B
:101A80008093E80079C081E28093EB0075C08130DB
:101A900029F440E86BE085E692E0EDCF833099F7DA
:101AA0000E94650BDC011296ED90FC9013978E015D
:101AB0000F5F1F4F6801E114F10479F0D701ED9138
:101AC000FC910680F781E02DB801C7010995080F48
:101AD000111DF701E084F184EECFD8011C92F601CC
:101AE00001900020E9F73197BF016C197D0940E0B2
:101AF000C601C1CF6FE472E002C063E572E0611518
:101B0000710509F2FB01449150E080E840CF0FB627
:101B1000F894A8958091600088618093600010928D
:101B200060000FBEA895EE3F2AE0F20739F08091E1
:101B3000FE0A9091FF0A91838083A1CF1092FF0A41
:101B40001092FE0A9CCFEE3F8AE0F80731F08081C8
:101B500091819093FF0A8093FE0A87E797E791832C
:101B600080839BE088E10FB6F894A895809360008D
:101B70000FBE9093600083CF6C960FB6F894DEBFD3
:101B80000FBECDBFDF91CF91FF91EF91BF91AF918C
:101B90009F918F917F916F915F914F913F912F9185
:101BA0001F910F91FF90EF90DF90CF900F900FBE9D
:101BB0000F901F901895CF93DF93282F30E0F901F5
:101BC000E251FE4F8491F901E153FE4FD491F901A6
:101BD000E055FE4FC491CC2391F081110E94F40F87
:101BE000EC2FF0E0EE0FFF1FEE55FE4FA591B491E4
:101BF000EC91ED2381E090E021F480E002C080E0F0
:101C000090E0DF91CF9108951F93CF93DF93282F1A
:101C100030E0F901E251FE4F8491F901E153FE4FAA
:101C2000D491F901E055FE4FC491CC23C9F0162F91
:101C300081110E94F40FEC2FF0E0EE0FFF1FEC5625
:101C4000FE4FA591B4918FB7F894111105C09C91E6
:101C5000ED2FE095E92302C0EC91ED2BEC938FBFC3
:101C6000DF91CF911F9108953FB7F8948091DA02E8
:101C70009091DB02A091DC02B091DD0226B5A89B19
:101C800005C02F3F19F00196A11DB11D3FBFBA2F0E
:101C9000A92F982F8827820F911DA11DB11DBC016E
:101CA000CD0142E0660F771F881F991F4A95D1F733
:101CB0000895DC01FB0112968C91129790E024812B
:101CC000358182179307D1F491818081813A31F473
:101CD00081E0913091F0933089F411C0813271F438
:101CE0009B3021F482811F968C9305C09A3031F489
:101CF000828150968C9381E00895089580E0089544
:101D0000DC01FB0188E4808389E4818384E48283AD
:101D10001D969C911D979F709F5B93831D968D913F
:101D20009C911E9724E0969587952A95E1F78F70F0
:101D30008F5B848385E00895FC0182818F5BFB01CA
:101D4000808381E0089585ED8093BC008091BC0084
:101D500084FDFCCF1092C30108954091B002262F5C
:101D600030E0240F311D21323105DCF42091C30114
:101D70002430C9F4FC0180E090E0861758F43091DB
:101D8000B0022191DC01A257BD4FA30FB11D2C93CE
:101D90000196F3CF8091B002680F6093B00280E0AB
:101DA000089581E0089582E008950895E0919C01EE
:101DB00080919B01E81730F4F0E0E259FD4F8081FB
:101DC00090E008958FEF9FEF089590919C0180918E
:101DD0009B01981750F4E92FF0E0E259FD4F208164
:101DE00030E09F5F90939C0102C02FEF3FEFC9014D
:101DF000089580919B0190E020919C01821B9109A4
:101E00000895CF92DF92EF92FF920F931F93CF939B
:101E1000DF937C01262F972F8A018091C4018823AC
:101E200091F0C62FD72F6E01C40ED51ECC15DD053F
:101E300071F06991D701ED91FC910190F081E02D55
:101E4000C7010995F3CF642F822F0E94AD0EC80100
:101E5000DF91CF911F910F91FF90EF90DF90CF9086
:101E60000895CF93DF931F92CDB7DEB7698320919A
:101E7000C4012223D1F02091E601203240F021E07C
:101E800030E0FC013383228380E090E015C0809134
:101E9000C501E82FF0E0EA53FE4F998190838F5FF0
:101EA0008093C5018093E60105C061E0CE010196F3
:101EB0000E94AD0E81E090E00F90DF91CF910895E8
:101EC000EF92FF920F931F93CF93DF93FB0120813B
:101ED000213851F52381223239F5DC0112962C91FB
:101EE00030E04481558142175307F1F4EC010B8532
:101EF0001C85E12CF12C0115110591F0F8014481AC
:101F000055816281738180E80E94720A8F3FFFEFE2
:101F10009F0769F0E80EF91ED8010D911C91EBCFD7
:101F200081E08F87C70105C080E090E002C08FEF9D
:101F30009FEFDF91CF911F910F91FF90EF90089548
:101F4000CF93DF93CDB7DEB769970FB6F894DEBFB6
:101F50000FBECDBFFC01DB018C918F5F8C93BE0166
:101F60006F5F7F4F89E1DB011D928A95E9F729E0D8
:101F7000298384E08A8391E09D8383E08E832A878E
:101F800021E22B879C879D879F8722E2288B27E071
:101F90002B8B25E02C8B8E8B20E430E0388F2F8B21
:101FA000998F82818B8395858685998B8A8B838196
:101FB00080688D8B49E150E080E00E94720A69964A
:101FC0000FB6F894DEBF0FBECDBFDF91CF9108955D
:101FD000682F80E10E94040E60E08FE00E94040EF2
:101FE00061E08FE00C94040E90E0FC013197EF303B
:101FF000F105B0F5E554FF4F0C94011D8091800070
:102000008F7703C0809180008F7D8093800008953A
:1020100080918000877FF9CF84B58F7702C084B527
:102020008F7D84BD0895809190008F7707C0809147
:1020300090008F7D03C080919000877F80939000F7
:1020400008958091C0008F7703C08091C0008F7D7C
:102050008093C00008958091C200877F8093C20062
:102060000895CF93DF9390E0FC01E153FE4F24915C
:10207000FC01E055FE4F8491882361F190E0880FC8
:10208000991FFC01E257FD4FC591D491FC01EC561C
:10209000FE4FA591B491611109C09FB7F894888152
:1020A000209582238883EC912E230BC0623061F44B
:1020B0009FB7F8943881822F809583238883EC9191
:1020C0002E2B2C939FBF06C08FB7F894E8812E2B40
:1020D00028838FBFDF91CF910895823108F082511C
:1020E000E82FF0E0EE57FD4FE49180917B00E3FB99
:1020F000222720F930E095E0220F331F9A95E1F76F
:102100008F7D282B20937B00E770E064E0937C00B8
:1021100080917A00806480937A0080917A0086FDB5
:10212000FCCF809178002091790090E0922B089567
:102130008F929F92AF92BF92CF92DF92EF92FF92D7
:102140006B017C010E94340E4B015C01C114D1046F
:10215000E104F104F1F00E94340EDC01CB01881996
:102160009909AA09BB09883E9340A105B10570F3FE
:1021700021E0C21AD108E108F10888EE880E83E058
:10218000981EA11CB11CC114D104E104F10419F77B
:10219000DDCFFF90EF90DF90CF90BF90AF909F90FA
:1021A0008F9008952FB7F8946091D6027091D7025E
:1021B0008091D8029091D9022FBF08951F920F925B
:1021C0000FB60F9211242F933F938F939F93AF934A
:1021D000BF938091D6029091D702A091D802B0917E
:1021E000D9023091D50223E0230F2D3720F4019638
:1021F000A11DB11D05C026E8230F0296A11DB11D2A
:102200002093D5028093D6029093D702A093D80250
:10221000B093D9028091DA029091DB02A091DC02A6
:10222000B091DD020196A11DB11D8093DA02909359
:10223000DB02A093DC02B093DD02BF91AF919F91CE
:102240008F913F912F910F900FBE0F901F90189577
:10225000CF93DF93EC0181E08C838D839E01265F19
:102260003F4F3F832E831986188620E631E039835D
:1022700028831C861B861E861D868F87888B81EC93
:102280008A870E94650BFC0121818C8190E0820F7E
:10229000911D089774F5A281B381109719F4D38327
:1022A000C2830CC018968D919C911997009711F0DC
:1022B000DC01F8CF1996DC93CE93189780818A833E
:1022C00081818B8390818D81890F808380E09C81C7
:1022D000891778F4AE81BF81A80FB11D9C91A181AF
:1022E000B0E0A65CBE4F9C9391819F5F91838F5F0E
:1022F000EECFDF91CF910895EF92FF920F931F934E
:10230000CF93DF931F92CDB7DEB78B017A01809117
:102310004103811107C080E393E00E94281181E00E
:102320008093410386E0898341E050E0BE016F5F06
:102330007F4F809133030E94990A97FD07C08091D7
:102340003303A701B80180640E94990A0F90DF91BE
:10235000CF911F910F91FF90EF9008951F920F92D0
:102360000FB60F9211242F933F934F935F936F9368
:102370007F938F939F93AF93BF93EF93FF9380913E
:10238000B900887F803609F49CC068F5883209F46A
:102390005BC090F4803109F454C038F4882309F408
:1023A000F6C0883009F44DC0F6C0883109F44CC03D
:1023B000803209F45DC0EFC0803409F468C048F48D
:1023C000803309F455C0883309F0E5C08093C1011A
:1023D000D8C0803509F44FC0883509F45DC0883411
:1023E00009F0D9C0D6C0883909F4C7C0A8F4883725
:1023F00009F467C038F4883609F463C0803709F4FB
:1024000060C0C9C0883809F4B8C0803909F45FC019
:10241000803809F0C0C05BC0803B09F486C038F446
:10242000803A09F466C0883A09F47FC0B4C0803CA1
:1024300009F4A7C0883C09F4A4C0883B09F48AC009
:10244000AAC080919E0110C09091C0018091BF01EF
:10245000981770F5E091C00181E08E0F8093C00164
:10246000F0E0E156FE4F80818093BB0085EC86C092
:102470008093C1018EC0E091C00181E08E0F8093F6
:10248000C0018091BB00F0E0E156FE4F8083909147
:10249000C0018091BF016EC0E091C00181E08E0F4C
:1024A0008093C0018091BB00F0E0E156FE4F808335
:1024B0008091C20181116DC081E080939D0184EA09
:1024C00061C083E08093C3011092D402CFCF80918A
:1024D000D402803208F051C0E091D40281E08E0F26
:1024E0008093D4028091BB00F0E0EC54FD4F8083D8
:1024F000BDCF85EC8093BC001092C3018091D402C3
:10250000803230F4E091D402F0E0EC54FD4F1082C0
:102510006091D40270E0E091B202F091B30284EBDA
:1025200092E009951092D40236C084E08093C301F2
:102530001092B1021092B002E091AE02F091AF029F
:1025400009958091B002811105C081E08093B002AD
:1025500010928E02E091B10281E08E0F8093B10261
:10256000F0E0E257FD4F80818093BB009091B10273
:102570008091B002981708F479CF85E88093BC0069
:102580000AC085EC8093BC001092C30104C0109275
:10259000C1010E94A30EFF91EF91BF91AF919F9156
:1025A0008F917F916F915F914F913F912F910F90FC
:1025B0000FBE0F901F9018950F931F93CF93082F66
:1025C00060E088E00E94040E81E00E94E80FC8E00D
:1025D00010E0C150C8010C2E02C0959587950A9451
:1025E000E2F781700E94E80FC111F3CF61E088E04B
:1025F000CF911F910F910C94040E0F931F93CF93C3
:10260000082F60E088E00E94040E80E00E94E80F3E
:10261000C8E010E0C150C8010C2E02C09595879506
:102620000A94E2F781700E94E80FC111F3CF61E0D4
:1026300088E0CF911F910F910C94040EBC0100977C
:1026400091F0FC0101900020E9F73197AF01481BA0
:10265000590BE091E002F091E1020280F381E02D5C
:1026600080EE92E0099480E090E008950C941E13AF
:10267000FC018091DF02811103C08FEF9FEF08956D
:102680009FB7F89482E08093E9002091F20030E057
:102690001216130614F421E030E02115310559F02B
:1026A000289884E68093DE028091F10080838091F7
:1026B000F200882319F09FBFC90108958BE680932B
:1026C000E800F9CF8F929F92AF92BF920F931F9322
:1026D000CF93DF93CDB7DEB7A1970FB6F894DEBFE7
:1026E0000FBECDBF19A2423008F44AE08E010F5D43
:1026F0001F4F842E912CA12CB12CA50194010E9476
:10270000BC1CE62FB901CA0101501109EA3014F4CA
:10271000E05D01C0E95CD801EC93232B242B252B31
:1027200061F7C8010E941E13A1960FB6F894DEBF90
:102730000FBECDBFDF91CF911F910F91BF90AF9092
:102740009F908F900895E091E002F091E102019056
:10275000F081E02D6FE380EE92E00994CF92DF925A
:10276000EF92FF92CF93DF930E94D2106B017C0116
:10277000C3ECD0E00E94ED060E94D210DC01CB0138
:102780008C199D09AE09BF09893C9105A105B105C8
:1027900020F4CE010197F1F7EDCFDF91CF91FF90BB
:1027A000EF90DF90CF900895789484B5826084BDD7
:1027B00084B5816084BD85B5826085BD85B5816045
:1027C00085BD80916E00816080936E0010928100C3
:1027D000809181008260809381008091810081607E
:1027E000809381008091800081608093800080913F
:1027F000910082608093910080919100816080932C
:102800009100809190008160809390008091C10040
:1028100084608093C1008091C10082608093C10078
:102820008091C10081608093C1008091C30081606C
:102830008093C3008091C00082608093C00080912B
:10284000C20081608093C20080917A00846080938E
:102850007A0080917A00826080937A0080917A0079
:10286000816080937A0080917A00806880937A00FA
:102870001092DF0210929A01109299018091D70074
:1028800081608093D70080EA8093D80089B5806109
:1028900089BD89B5826089BD09B400FEFDCF61E0C4
:1028A00070E080E090E00E9498108091D8008F7CCA
:1028B00080618093D8008091E000807F8093E00069
:1028C0008091E1008E7E8093E1008DE08093E200B4
:1028D000559A209AEEEFFFE7859194918B3F9C4D9E
:1028E00019F481E08093980164EF71E080E090E05A
:1028F0000E9498108FEF9FEF9093ED028093EC026F
:1029000061E085E00E943110C4E061E085E00E9452
:10291000040E62E370E080E090E00E94981060E0B6
:1029200085E00E94040E62E370E080E090E00E9487
:102930009810C15051F761E08BE00E9431100E9465
:10294000AE0160E087E00E94311060E08BE10E9400
:10295000311060E08CE10E94311060E082E10E9461
:10296000311060E083E10E94311060E084E10E9458
:10297000311060E088E10E9431100DE411E0A3E025
:10298000B1E0F8018FE0800F91919D938E13FCCF01
:10299000C0E0D0E0FF24F394D801ED908D012196A2
:1029A000CE010E94741CE812F12CCF30D105A1F7A2
:1029B00080E090E00E94741C853011F4F11002C098
:1029C0000E940B040E94F403109215011092190149
:1029D000C1E0C0931401809112010E943C068091D5
:1029E0001301882319F0C093130102C01092130140
:1029F0000E940B0481E090911401911101C080E0CC
:102A00000E942D0680911501882321F081E080939A
:102A1000150102C0109215010E940B0410929C0136
:102A200010929B011092C5011092E6011092C30111
:102A3000C1E0C093C20110929D0161E082E00E945A
:102A4000040E61E083E00E94040E8091B9008E7F45
:102A50008093B9008091B9008D7F8093B90088E49C
:102A60008093B80085E48093BC00C093C40184E2E5
:102A7000809303021092C5011092E60160E08AE59E
:102A800093E00E94310F8091E601813208F045C049
:102A90009091C3019111FCCF92E09093C30191E01A
:102AA0009093C2019FEF9093C1011092C001809357
:102AB000BF01A6ECB1E02FE931E0F9019E2F921B96
:102AC000981718F49D919193F9CF10929E018091DF
:102AD0009E01886480939E0180919D01813061F404
:102AE00010929D0180919E018093BB008091BC005B
:102AF00083FDF8CF85EC01C085EE8093BC0080910A
:102B0000C3018230E1F38091C1018F3F31F08091A8
:102B1000C101803211F08091C1011092C501109263
:102B2000E6011092C40162E081E00E94311062E08F
:102B300080E00E9431100E94C5028091EF0188233D
:102B400041F060ED77E080E090E00E9498100E94F4
:102B500022048FE0EBE4F3E0DF011D928A95E9F7B0
:102B6000E0914903F0914A030190F081E02D4FE09C
:102B700050E06BE473E089E493E0099593E0292E3B
:102B8000312C24ED822E23E0922EA12CB12C30E0AA
:102B9000C32E30E0D32E0E94ED060E94D210009189
:102BA0001402109115022091160230911702DC01D7
:102BB000CB01801B910BA20BB30B4197A105B10573
:102BC00008F4FCC461E085E00E94040E0E94C50286
:102BD0008091020281115FC480915903807F8093AC
:102BE000590390911901992309F45DC02091E701DF
:102BF00080914B0390914C03A0914D03B0914E03F3
:102C0000222311F0906401C09F7B80934B0390932B
:102C10004C03A0934D03B0934E032091E8018091A3
:102C20004B0390914C03A0914D03B0914E0322238E
:102C300011F0906801C09F7780934B0390934C03F1
:102C4000A0934D03B0934E032091E90180914B0373
:102C500090914C03A0914D03B0914E03222311F0AB
:102C6000A16001C0AE7F80934B0390934C03A0936F
:102C70004D03B0934E032091EA0180914B03909154
:102C80004C03A0914D03B0914E03222311F0A2609A
:102C900001C0AD7F80934B0390934C03A0934D03F1
:102CA000B0934E033DC09091E8019923A1F0856057
:102CB000809359039091E901992321F0807F8660E8
:102CC000809359038091EA01882351F1809159033F
:102CD000807F846023C09091E7019923A1F08160F7
:102CE000809359039091E901992321F0807F8860B6
:102CF000809359038091EA01882391F080915903D0
:102D0000807F82600BC09091E901992311F0876068
:102D100005C09091EA01992319F0836080935903CB
:102D20002091EB0180914B0390914C03A0914D03B6
:102D3000B0914E03222311F0816001C08E7F8093F9
:102D40004B0390934C03A0934D03B0934E032091FB
:102D5000EC0180914B0390914C03A0914D03B091F5
:102D60004E03222311F0826001C08D7F80934B03BC
:102D700090934C03A0934D03B0934E032091ED012B
:102D800080914B0390914C03A0914D03B0914E0361
:102D9000222311F0846001C08B7F80934B039093BA
:102DA0004C03A0934D03B0934E032091EE0180910C
:102DB0004B0390914C03A0914D03B0914E032223FD
:102DC00011F0886001C0877F80934B0390934C0380
:102DD000A0934D03B0934E032091EF0180914B03DC
:102DE00090914C03A0914D03B0914E03222311F01A
:102DF000806101C08F7E80934B0390934C03A0931E
:102E00004D03B0934E032091F00180914B039091BC
:102E10004C03A0914D03B0914E03222311F0806228
:102E200001C08F7D80934B0390934C03A0934D037F
:102E3000B0934E032091F10180914B0390914C038C
:102E4000A0914D03B0914E03222311F0806401C084
:102E50008F7B80934B0390934C03A0934D03B093CF
:102E60004E032091F20180914B0390914C03A0916D
:102E70004D03B0914E03222311F0806801C08F777B
:102E800080934B0390934C03A0934D03B0934E0358
:102E90002091F30180914B0390914C03A0914D033D
:102EA000B0914E03222311F0916001C09E7F809368
:102EB0004B0390934C03A0934D03B0934E0320918A
:102EC000F40180914B0390914C03A0914D03B0917C
:102ED0004E03222311F0926001C09D7F80934B032B
:102EE00090934C03A0934D03B0934E032091F501B2
:102EF00080914B0390914C03A0914D03B0914E03F0
:102F0000222311F0946001C09B7F80934B03909328
:102F10004C03A0934D03B0934E032091F601809192
:102F20004B0390914C03A0914D03B0914E0322238B
:102F300011F0986001C0977F80934B0390934C03EE
:102F4000A0934D03B0934E03809118018823A1F004
:102F500080E00E94DB0D892B29F480E00E940B06A3
:102F60000E94AE1381E00E94DB0D892B29F481E0E1
:102F70000E940B060E94AE1380913401882309F44D
:102F800031C18BE10E946D10EC018CE10E946D104B
:102F900020911A0130911B01FE01E21BF30B9F01EE
:102FA00040911C0150911D018C01041B150BE090F8
:102FB0003201F0903301EE16FF061CF42E193F0982
:102FC0000CC0882799278E199F09E817F9071CF468
:102FD0002E0D3F1D02C020E030E080913601409070
:102FE0001E0150901F01A901330F660B770BE09172
:102FF0002201F0912301882381F124E6420E511C25
:10300000052C000C660877089A01AB0124193509D4
:1030100046095709A4EBB0E00E94B71C9F01245653
:103020003109032E000C440B550B241935094609B0
:1030300057090E948A1C243B31058FEF4807580727
:10304000D4F11216130614061506C4F1DA01C901EB
:103050008A559048AF4FBF4F2CC094E6490E511C83
:10306000052C000C660877089A01AB012419350974
:1030700046095709ACE4BFEF0E94A91C9F012456E2
:103080003109032E000C440B550B24193509460950
:1030900057090E948A1C57FD0EC02D34AFEF3A0726
:1030A000410551055CF4DA01C901865A9F47A1091F
:1030B000B109EC0105C0CAE5D0E802C0C6EADFE705
:1030C000E016F10624F498012E193F090DC0882757
:1030D00099278E199F090817190724F498012E0DB6
:1030E0003F1D02C020E030E0809137014090200178
:1030F00050902101A901330F660B770BE091240159
:10310000F0912501882389F1B4E64B0E511C052C62
:10311000000C660877089A01AB01241935094609A5
:103120005709A4EBB0E00E94B71CE456F1098F01E7
:10313000FF0F220B330BA901980124193509460909
:1031400057090E948A1C243B3105EFEF4E075E07AA
:10315000DCF11216130614061506CCF1DA01C901CA
:103160008A559048AF4FBF4F2DC024E6420E511CE8
:10317000052C000C660877089A01AB012419350963
:1031800046095709ACE4BFEF0E94A91CE456F109B7
:103190008F01FF0F220B330BA90198012419350968
:1031A000460957090E948A1C57FD0EC02D348FEF27
:1031B0003807410551055CF4DA01C901865A9F4779
:1031C000A109B1099C0105C02AE530E802C026EA40
:1031D0003FE7D0935003C0934F03309352032093A3
:1031E000510308C01092500310924F0310925203E3
:1031F0001092510380913501882309F431C182E195
:103200000E946D10EC0183E10E946D102091260157
:1032100030912701DE01A21BB30B9D0140912801D3
:10322000509129018C01041B150BE0903201F090A4
:103230003301EA16FB061CF42E193F090CC088273F
:1032400099278E199F09A817B9071CF42E0D3F1D49
:1032500002C020E030E08091380140902A01509077
:103260002B01A901330F660B770BE0912E01F09132
:103270002F01882381F1B4E64B0E511C052C000C64
:10328000660877089A01AB012419350946095709E0
:10329000A4EBB0E00E94B71C9F0124563109032E15
:1032A000000C440B550B24193509460957090E9497
:1032B0008A1C243B3105EFEF4E075E07D4F112164E
:1032C000130614061506C4F1DA01C9018A5590489F
:1032D000AF4FBF4F2CC024E6420E511C052C000CF2
:1032E000660877089A01AB01241935094609570980
:1032F000ACE4BFEF0E94A91C9F0124563109032EA4
:10330000000C440B550B24193509460957090E9436
:103310008A1C57FD0EC02D348FEF3807410551052B
:103320005CF4DA01C901865A9F47A109B109EC0191
:1033300005C0CAE5D0E802C0C6EADFE7E016F1063C
:1033400024F498012E193F090DC0882799278E195A
:103350009F090817190724F498012E0D3F1D02C07C
:1033600020E030E08091390140902C0150902D01F7
:10337000A901330F660B770BE0913001F091310119
:10338000882389F194E6490E511C052C000C66082F
:1033900077089A01AB012419350946095709A4EBAE
:1033A000B0E00E94B71CE456F1098F01FF0F220B19
:1033B000330BA901980124193509460957090E94C0
:1033C0008A1C243B3105AFEF4A075A07DCF112167D
:1033D000130614061506CCF1DA01C9018A55904886
:1033E000AF4FBF4F2DC0B4E64B0E511C052C000C47
:1033F000660877089A01AB0124193509460957096F
:10340000ACE4BFEF0E94A91CE456F1098F01FF0F45
:10341000220B330BA90198012419350946095709D4
:103420000E948A1C57FD0EC02D34EFEF3E07410568
:1034300051055CF4DA01C901865A9F47A109B10917
:103440009C0105C02AE530E802C026EA3FE7D09398
:103450005403C0935303309356032093550308C07D
:103460001092540310925303109256031092550376
:103470008091FD01811126C0E0914903F0914A033A
:103480000190F081E02D4FE050E06BE473E089E4BF
:1034900093E0099517C00E94D2100091FE0110918F
:1034A000FF012091000230910102DC01CB01801B61
:1034B000910BA20BB30B893E9340A105B10510F00F
:1034C000109202028091FD01882309F469C0809165
:1034D000E701882319F081E00E940B068091E80142
:1034E000882319F080E00E940B068091EA0188236E
:1034F00061F080911201282F30E02B35310514F452
:10350000865F01C084E60E943C068091E901882321
:1035100049F0809112018A3010F08A5001C080E099
:103520000E943C068091EB01882329F081E0809382
:1035300013010E940B048091EC01882321F010926A
:1035400013010E940B048091EE01882319F081E0A1
:103550000E942D068091ED01882319F080E00E94E1
:103560002D068091EF01882329F081E080931501D9
:103570000E940B048091F001882321F01092150124
:103580000E940B048091F301882319F081E080935D
:1035900019018091F1018111109219010E94AE135D
:1035A00060E085E00E94040E0E94D2106093140235
:1035B0007093150280931602909317020E94D21006
:1035C0000091100210911102209112023091130209
:1035D000DC01CB01801B910BA20BB30B893C910545
:1035E000A105B105E8F087E00E94DB0D892B21F4ED
:1035F00081E08093FD0102C01092FD018091FD01E8
:10360000882321F01092FB011092FC010E94D2103D
:103610006093100270931102809312029093130230
:103620000E94D21000910C0210910D0220910E0206
:1036300030910F02DC01CB01801B910BA20BB30B6D
:10364000853F9140A105B10508F4ADC084E10E9419
:103650006D10EC0184E10E946D10C80FD91F84E148
:103660000E946D108C0F9D1FB1010E94ED1C709384
:10367000F8016093F70180911701882309F446C08F
:1036800088E10E946D10EC0188E10E946D10C80F66
:10369000D91F88E10E946D10C80FD91F88E10E94D0
:1036A0006D108C0F9D1F9C0135952795359527959D
:1036B0002431310538F0293E43E0340728F028EE64
:1036C00033E002C024E130E0C901A0E0B0E09C0199
:1036D000AD012451310941095109A4E6B0E00E942D
:1036E000A91CA50194010E948A1CC90140910001F6
:1036F000509101018417950749F0253608F024E61A
:103700002093160190930101809300019091F9019B
:1037100020910A028091050229134CC09091FA0170
:1037200020910B02291346C0811114C0409106025A
:103730005091070260910802709109024F5F5F4F3C
:103740006F4F7F4F40930602509307026093080229
:10375000709309024091060250910702609108029D
:1037600070910902413B544061057105A0F181113E
:1037700010C081E0809305028091120180930402C1
:1037800080E00E943C0680910402809312010E9416
:103790000B040E94D21060930C0270930D02809370
:1037A0000E0290930F02C114D10409F4F4C90E94CF
:1037B0000000F1C99091F90190930A029091FA01E9
:1037C00090930B02109206021092070210920802C8
:1037D00010920902BFCF8823E1F210920502809176
:1037E00004020E943C06D5CF1092E3021092E2023E
:1037F00088EE93E0A0E0B0E08093E4029093E502CD
:10380000A093E602B093E7028CE691E09093E10288
:103810008093E0028FEF9FEF9093ED028093EC0294
:103820008CE791E090934A038093490380916C0365
:10383000811113C010926703109266038CE992E025
:10384000909369038093680380E590E090936B0305
:1038500080936A0381E080936C038091410381111E
:1038600007C080E393E00E94281181E08093410328
:10387000E0913B03F0913C03309739F486E693E006
:1038800090933C0380933B030AC080819181009711
:1038900011F0FC01FACF86E693E0918380832091BA
:1038A0006A0330916B0380913D0390913E03820F38
:1038B000931F90933E0380933D0310925D031092FB
:1038C0005C0388EE93E0A0E0B0E080935E03909309
:1038D0005F03A0936003B093610382E891E090934B
:1038E0005B0380935A030895F999FECF92BD81BD81
:1038F000F89A992780B50895262FF999FECF1FBA17
:1039000092BD81BD20BD0FB6F894FA9AF99A0FBE08
:1039100001960895052E97FB1EF400940E94A11CA9
:1039200057FD07D00E94BC1C07FC03D04EF40C943A
:10393000A11C50954095309521953F4F4F4F5F4FBB
:10394000089590958095709561957F4F8F4F9F4F0B
:1039500008950E94DE1CA59F900DB49F900DA49F1A
:10396000800D911D11240895B7FF0C94A91C0E948D
:10397000A91C821B930B0895A1E21A2EAA1BBB1B44
:10398000FD010DC0AA1FBB1FEE1FFF1FA217B3072B
:10399000E407F50720F0A21BB30BE40BF50B661F41
:1039A000771F881F991F1A9469F760957095809505
:1039B00090959B01AC01BD01CF010895A29FB0017C
:1039C000B39FC001A39F700D811D1124911DB29F53
:1039D000700D811D1124911D089597FB072E16F47B
:1039E000009407D077FD09D00E94071D07FC05D081
:1039F0003EF4909581959F4F0895709561957F4F06
:103A00000895EE0FFF1F0590F491E02D0994AA1B75
:103A1000BB1B51E107C0AA1FBB1FA617B70710F0B9
:103A2000A61BB70B881F991F5A95A9F780959095EB
:103A3000BC01CD01089581E090E0F8940C94201D24
:043A4000F894FFCF28
:103A44006500050000000000000000000000000008
:103A540000006401010032000100FF01FF01D300F6
:103A6400D3002B032B03FF01FF01D300D3002B034F
:103A74002B03320000000100010000C1808100001E
:103A840000FFFFFFFF00E10000000000004F63742F
:103A940035203230313830363339353000000000CB
:103AA400590EA00F600F800E0000000081094F0B1B
:103AB400A209BE09DC099709000000007C1100007E
:103AC4000000310F010FF90EE50ED60ED50E4F4B47
:083AD4000046310046320000FB
:2070000055C000006EC000006CC000006AC0000068C0000066C0000064C0000062C0000043
:2070200060C000005EC00000F2C400005AC0000058C0000056C0000054C0000052C00000EE
:2070400050C0000078C000004CC000004AC0000048C0000046C0000044C0000042C00000BE
:2070600040C000003EC000003CC000003AC0000038C0000036C0000034C0000032C0000048
:2070800030C000002EC000002CC000002AC0000028C0000026C0000024C0000022C00000A8
:2070A00020C000001EC000001CC0000011241FBECFEFDAE0DEBFCDBF11E0A0E0B1E0E2E3BC
:2070C000FFE702C005900D92A83AB107D9F711E0A8EAB1E001C01D92AE3BB107E1F78FD30B
:2070E00026C78ECFF89410926F0010928100109285001092840081E085BF15BE47985D9AEB
:20710000289A0C94000008952091B2013091B3012F5F3F4F3093B3012093B201932F37FFA6
:2071200003C08EEF831B982F990F921710F447980895479A08951F920F920FB60F9211246E
:207140002F938F939F93EF93FF9310928500109284008091A8019091A901009741F00197D3
:207160009093A9018093A801892B09F45D9A8091AA019091AB01009741F001979093AB0126
:207180008093AA01892B09F4289AE0E0F0E0859194918F5F9F4F49F08091AC019091AD0151
:2071A00001969093AD018093AC01FF91EF919F918F912F910F900FBE0F901F90189584E0BC
:2071C0008093E9000DC08091E8008B778093E80003C08EB3882351F08091E80082FFF9CFBE
:2071E0008091E80085FFEFCF8091F1000895982F83E08093E9008091E80085FD0DC0809136
:20720000E8008E778093E80003C08EB3882369F08091E80080FFF9CF9093F1005D9884E6CB
:2072200090E09093A9018093A80108954F925F926F927F928F929F92AF92BF92CF92DF921E
:20724000EF92FF920F931F93CF93DF9384E08093E9008091E80082FF57C2289884E690E067
:207260009093AB018093AA01AADF182F853481F48CE49DE19093AD018093AC0107B600FC4B
:20728000FDCFF999FECF81E180935700E89503C0843519F494DF8DE00DC28C34E1F38035F9
:2072A000D1F3843721F484E4A2DF80E003C2813611F489E5FFC18134B1F481DF182F7FDFE3
:2072C00090E0880F991FAA2797FDA095BA2F312F330F20E0442737FD4095542F822B932B68
:2072E000A42BB52BB8C1803711F483E5E3C1833549F4C0E0D1E089917ADF21E0C730D20714
:20730000D1F7D9C1863521F481E371DF80E3D2C1833731F487E86BDF85E969DF8EE1CAC149
:207320008536B9F4E0E0F0E093E085E090935700E89507B600FCFDCF80935700E89507B65D
:2073400000FCFDCFE058FF4FA0E7E030FA0771F7A2CF823739F4E1E0F0E089E08093570024
:207360008491A8C1863439F4E0E0F0E089E08093570084919FC18E3439F4E3E0F0E089E0E5
:2073800080935700849196C1813539F4E2E0F0E089E08093570084918DC1823631F489E521
:2073A00026DF80E024DF80E885C1823419F0873609F0E5C01092AD011092AC0100DF082FE8
:2073C000FEDEF82EFCDE682E8554823008F071C1902F80E0CF2DD0E0C82BD92B10926F00B3
:2073E000173609F04BC081E180935700E895DD24CC24C3943FC0E090AE01F090AF010091CC
:20740000B0011091B101B6E46B16D9F4ED2DF0E0EE29FF29E4918E2FEADEDD2081F082E08D
:2074200090E0A0E0B0E0E80EF91E0A1F1B1FE092AE01F092AF010093B0011093B101DC2470
:2074400018C0D801C701B695A7959795879559D5CEDE82E090E0A0E0B0E0E80EF91E0A1FF2
:207460001B1FE092AE01F092AF010093B0011093B1012197209709F0BECF7DC08090AE01F5
:207480009090AF01A090B001B090B10196E4691609F05DC083E0F40180935700E89507B63E
:2074A00000FCFDCF54C0F6E46F1661F5772031F1E090AE01F090AF010091B0011091B1019E
:2074C0007EDED82ECC24852D90E08C299D29F7010C0140925700E895112482E090E0A0E08B
:2074E000B0E0E80EF91E0A1F1B1FE092AE01F092AF010093B0011093B10102C060DE582E1A
:20750000742423C0E090AE01F090AF010091B0011091B10116950795F794E79450DE682FFA
:20752000C701F7D48091AE019091AF01A091B001B091B1010296A11DB11D8093AE01909349
:20754000AF01A093B001B093B101219704C05524772444244394209709F0A5CF96E46916B6
:2075600041F485E0F40180935700E89507B600FCFDCF8DE03CDE82E080936F009CC0833492
:2075800071F40091AE011091AF0119DE90E021E0F8010C0120935700E89511247CCE8336C8
:2075A00019F5E090AE01F090AF010091B0011091B10105DEF701E16090E021E00C0120938C
:2075C0005700E895112482E090E0A0E0B0E0E80EF91E0A1F1B1FE092AE01F092AF0100936A
:2075E000B0011093B10157CE8D3661F4E091AE01F091AF0185E080935700E89507B600FCF2
:20760000FDCF49CE823551F4E091AE01F091AF0105911491812FEBDD802F4CC0843421F5FE
:20762000E090AE01F090AF010091B0011091B10116950795F794E794C2DD682FC70169D4DE
:207640008091AE019091AF01A091B001B091B1010296A11DB11D8093AE019093AF01A093D8
:20766000B001B093B10117CE843609F5E090AE01F090AF010091B0011091B101D801C70142
:20768000B695A795979587953CD4B1DD82E090E0A0E0B0E0E80EF91E0A1F1B1FE092AE010A
:2076A000F092AF010093B0011093B10104C08B3111F08FE39CDD83E08093E9009091E8002B
:2076C0008091E8008E778093E80095FF04C010C08EB38823C9F08091E80080FFF9CF809193
:2076E000E8008E778093E80003C08EB3882361F08091E80080FFF9CF84E08093E9008091F1
:20770000E8008B778093E800DF91CF911F910F91FF90EF90DF90CF90BF90AF909F908F90AC
:207720007F906F905F904F9008959091B601892F8F77813249F58091B7018032A1F081328A
:2077400019F5913A09F58091E800877F8093E8008DE091E067E070E00BD28091E8008B770B
:207760008093E8000895913279F48091E800877F8093E8008DE091E067E070E05DD2809192
:20778000E8008E778093E800089582E061EC42E0B5D083E061E842E1B1D084E060E842E1EF
:2077A000ADC084B7877F84BF88E10FB6F89480936000109260000FBE20E880E090E00FB63F
:2077C000F89420936100809361000FBE81E085BF92E095BF3F9A209A559AE1E6F0E02083A1
:2077E000108247985D9A289A109289008AEF8093880090936F0083E080938100F0C0409116
:20780000000850910108109201081092000894B714BE88E10FB6F8948093600010926000D5
:207820000FBE292F30E0F901E270F07091FD18C090FF05C0859194918F5F9F4F81F423FFFF
:207840000FC08091090190910A014817590741F0E0E0F0E0859194918F5F9F4F09F042DC64
:20786000A0DF78941092AD011092AC010CC0DEDC36D38091AC019091AD0181549F4110F00D
:207880001092140141DC80911401882381F78091E00081608093E00025DC80E090E0089598
:2078A000FA01923049F0933061F09130F9F485E191E022E130E01EC087E291E02EE330E04D
:2078C00019C0882329F485E691E024E030E012C0813029F489E691E022E230E00BC0823006
:2078E00029F48DE891E028E130E004C080E090E020E030E091838083C90108958093E9004E
:207900008091EB0081608093EB001092ED006093EC004093ED008091EE00881F8827881F62
:2079200008958091B60188238CF403C08EB38823B1F08091E80082FFF9CF8091E8008B772A
:207940008093E80008958EB3882349F08091E80080FFF9CF8091E8008E778093E800089594
:20796000EF92FF920F931F9345D04CD008ED10E0F80180818F77808380818068808380819B
:207980008F7D808319BC1EBA1092B40180EEE82EF12CF70180818B7F8083F8018081816052
:2079A000808380E060E042E0A9DFE1EEF0E080818E7F8083E2EEF0E0808181608083808144
:2079C00088608083F70180818E7F8083F8018081806180831F910F91FF90EF900895E7ED06
:2079E000F0E08081816080838AE482BF81E08093B501B6CFE8EDF0E080818E7F808310921C
:207A0000E20008951092DA001092E10008951F920F920FB60F9211242F933F934F935F93F6
:207A20006F937F938F939F93AF93BF93EF93FF938091DA0080FF1BC08091D80080FF17C0B2
:207A40008091DA008E7F8093DA008091D90080FF0BC080E189BD82E189BD09B400FEFDCF36
:207A600081E08EBB3BD203C019BC1EBA37D28091E10080FF17C08091E20080FF13C0809138
:207A8000E2008E7F8093E2008091E20080618093E2008091D80080628093D80019BC85E049
:207AA0008EBB1CD28091E10084FF2CC08091E20084FF28C080E189BD82E189BD09B400FEC5
:207AC000FDCF8091D8008F7D8093D8008091E1008F7E8093E1008091E2008F7E8093E20012
:207AE0008091E20081608093E2008091B401882331F48091E30087FD02C081E001C084E067
:207B00008EBBECD18091E10083FF21C08091E20083FF1DC08091E100877F8093E10082E06A
:207B20008EBB1092B4018091E1008E7F8093E1008091E2008E7F8093E2008091E2008061E9
:207B40008093E20080E060E042E0D8DEC7D1FF91EF91BF91AF919F918F917F916F915F9130
:207B60004F913F912F910F900FBE0F901F9018959C014091BC015091BD014617570718F49D
:207B8000F90190E044C06115710511F0AB01F8CF8091E8008E778093E80040E050E0F0CF0F
:207BA0008EB3882309F444C0853009F443C08091E80083FF02C081E008958091E80082FD70
:207BC00031C08091E80080FF22C08091F3009091F200782F60E0292F30E0262B372B07C07A
:207BE00081918093F100415050402F5F3F4F4115510519F02830310598F390E02830310566
:207C000009F491E08091E8008E778093E8004115510531F6992321F605C08EB3882341F075
:207C2000853041F08091E80082FFF7CF80E0089582E0089583E008959C016115710529F47C
:207C40008091E8008B778093E800F90126C08EB3882391F1853091F18091E80083FF02C06C
:207C600081E008958091E80082FFF1CF06C08091F10081936150704059F02091F300809191
:207C8000F200322F20E090E0822B932B892B79F78091E8008B778093E80061157105B9F601
:207CA00005C08EB3882341F0853041F08091E80080FFF7CF80E0089582E0089583E00895C2
:207CC0000F931F93DF93CF9300D0CDB7DEB7E6EBF1E08091F100819381E0EE3BF807C9F792
:207CE00024DD8091E80083FFE4C08091B6019091B701953009F46DC0963040F4913081F1A7
:207D0000913070F0933009F0D4C02AC0983009F4A3C0993009F4B2C0963009F0CAC07CC023
:207D2000803809F4C6C0823809F0C3C08091BA0187708093E9008091EB001092E9002091DB
:207D4000E800277F2093E80090E025E0969587952A95E1F781708093F1001092F10087C0D8
:207D6000882319F0823009F0A4C08F71823009F0A0C08091B801882331F52091BA01277097
:207D800009F497C02093E9008091EB0080FF1BC0933021F48091EB00806213C08091EB0018
:207DA00080618093EB0081E090E002C0880F991F2A95E2F78093EA001092EA008091EB00E5
:207DC00088608093EB001092E9008091E800877F51C0882309F06DC01091B8011F770FB79B
:207DE000F8948091E800877F8093E8009ADD8091E80080FFFCCF8091E3008078812B809398
:207E0000E30080688093E300112311F482E001C083E08EBB0FBF4DC08058823008F049C033
:207E20008091B8019091B9016091BA01AE014F5F5F4F36DDBC01009709F43BC08091E8008E
:207E4000877F8093E80089819A8192DE8091E8008B778093E8002DC0803859F58091E800AA
:207E6000877F8093E8008091B4018093F1008091E8008E778093E80054DD1BC08823C9F4CA
:207E80009091B8019230A8F48091E800877F8093E8009093B40145DD8091B401882331F420
:207EA0008091E30087FD02C081E001C084E08EBB6CDC8091E80083FF0AC08091EB0080624E
:207EC0008093EB008091E800877F8093E8000F900F90CF91DF911F910F91089508951F9360
:207EE0008EB3882361F01091E9001092E9008091E80083FF01C0E4DE17701093E9001F916F
:207F00000895F999FECF92BD81BDF89A992780B50895262FF999FECF1FBA92BD81BD20BDBD
:207F20000FB6F894FA9AF99A0FBE01960895F894FFCF4341544552494E4100777700080031
:207F40000000000000080112011001020000084123360001000201000109023E00020100FF
:207F600080320904000001020201000524001001042402040524060001070582030800FF0C
:207F800009040100020A000000070504021000010705830210000104030904220341007216
:207FA000006400750069006E006F0020004C0065006F006E006100720064006F0000001836
:1A7FC00003410072006400750069006E006F0020004C004C004300000000D7
:00000001FF
